:020000040800F2
:10000000608200207D020008F15900089548000830
:10001000E9520008A50C0008D57400080000000093
:10002000000000000000000000000000C101000806
:10003000551900080000000015020008F1690008C9
:10004000970200089702000897020008970200082C
:10005000970200089702000897020008970200081C
:10006000970200089702000897020008970200080C
:100070009702000897020008751800089702000808
:10008000811800088D1800089702000897020008E0
:100090008D0D00089702000897020008751A0008E5
:1000A00097020008970200089702000897020008CC
:1000B00097020008056B00089702000897020008E5
:1000C00097020008970200089702000897020008AC
:1000D0009702000871730008E17300089702000896
:1000E000970200089702000897020008970200088C
:1000F000970200089702000897020008970200087C
:10010000970200089702000897020008970200086B
:100110009702000897020008916B000897020008F8
:100120009702000899180008A5180008970200080F
:10013000970200089702000897020008970200083B
:1001400097020008950E0008970200089702000821
:1001500097020008970200089702000861740008DF
:10016000970200089702000897020008970200080B
:10017000970200089702000897020008000000009C
:100180009702000897020008E16E0008656F0008FA
:1001900097020008970200089702000897020008DB
:1001A000000000000000000097020008DFF80CD0FB
:1001B00000F03AFB0048004783840008608200207A
:1001C0002B4B19680868B0E8F04F80F30988BFF33B
:1001D0006F8F4FF0000080F311887047000000001F
:1001E00006480068006880F3088862B661B6BFF30D
:1001F0004F8FBFF36F8F00DF00BF00BF08ED00E03F
:10020000DFF80C00016841F470010160704700BF25
:1002100088ED00E0EFF30980BFF36F8F144B1A688D
:100220001EF0100F08BF20ED108A20E9F04F10607B
:1002300008B44FF0500080F31188BFF34F8FBFF325
:100240006F8F09F07DFA4FF0000080F3118808BC31
:1002500019680868B0E8F04F1EF0100F08BFB0EC46
:10026000108A80F30988BFF36F8F704700BF00BF0B
:10027000C80F0020EFF30580704700000648804754
:1002800006480047FEE7FEE7FEE7FEE7FEE7FEE77B
:10029000FEE7FEE7FEE7FEE7B16A0008AD010008F1
:1002A0002DE9F05F0546002092469B4688460646AB
:1002B000814640241BE0284641464746224600F03E
:1002C000FCF953465A46C01A914110D311461846BC
:1002D000224600F0E3F92D1A67EB01084F4622464B
:1002E0000120002100F0DAF917EB00094E41201E31
:1002F000A4F10104DFDC484631462A464346BDE806
:10030000F09F40EA01039B0703D009E008C9121FD0
:1003100008C0042AFAD203E011F8013B00F8013BBF
:10032000521EF9D27047D2B201E000F8012B491EEB
:10033000FBD270470022F6E710B513460A46044682
:100340001946FFF7F0FF204610BD2DE9FE4F80460D
:1003500081EA0300C00F0C46009021F0004123F019
:100360000045B8EB0200A94105D24046214690461F
:100370001C460B46024623F00040104347D0270D91
:10038000C7F30A00C3F30A510290401A01904028B3
:100390006BDAC3F3130040F4801B0098924620B13F
:1003A0000023D2EB030A63EB0B0B01985946C0F113
:1003B0004002504600F072F906460D465046594636
:1003C000019A00F08AF910EB08006141002487EAE5
:1003D000115284EAE7731A4340D0009A62B3019A3B
:1003E000012A4FEA075215DC001B61EB02014FF0B6
:1003F000004202EA0752CDE90042001C41F580119B
:1004000032462B4600F0C1F903B0BDE8F08F4046FC
:100410002146F9E7001B61EB0201001C41F5801346
:1004200000185B412018A2F5001747EB030140EAD2
:10043000D570B6196D4111E06D084FEA360645EAF0
:10044000C0754FEA0752001B61EB0201001C41F529
:10045000801149084FEA30000019514132462B46BD
:1004600003B0BDE8F04F00F081B9009801224000D0
:100470000023D0EB020263EBE073009821464FEAC1
:10048000E074B8EB000061EB0401E9E783F000439E
:100490005BE781F0004158E72DE9FE4F81EA030454
:1004A00004F0004421F0004100944FF0000B23F0D1
:1004B000004350EA01045ED052EA03045BD0C3F368
:1004C0000A54C1F30A552C44A4F2F3340194A0FB5E
:1004D0000254C1F3130141F48011C3F3130343F435
:1004E000801301FB024400FB034E840A970A44EA8E
:1004F000815447EA8357A4FB076802958D0A05FBE0
:1005000007854FEA932C04FB0C542705029D4FEA04
:10051000065847EA1637B5EB08056EEB070C870E51
:10052000920E47EA811742EA8312A7FB0201B6EB5B
:100530000B0164EB00042B0D43EA0C335E1844EB13
:100540001C50DA465146E7FB0201C5F313044FEA9B
:100550000B3343EA14534FEA0432019C43EA060387
:10056000A4F10C040294009CCDE900B400F00DF954
:1005700003B0BDE8F08F00200146F9E70EB5C10FCA
:1005800080EAE0700844CA07002140F233438DE856
:100590000E000A460B4600F0F8F803B000BD70B537
:1005A000C1F30A5201F000450024C1F3130140F2E7
:1005B000FF3341F480119A4201DA002070BD40F20D
:1005C00033439A42A2F2334203DC524200F075F800
:1005D00000E090402C43F1D0404270BD00F000425A
:1005E00030F000400AD0C10D01F56071C0F3160073
:1005F00042EA0151C20840071143704700200146FA
:100600007047000030B5041E71F1000404DB4FF0A8
:100610000044404264EB0101141E73F1000405DB49
:100620001C464FF00043524263EB04038B4208BF69
:10063000824230BD30B5041E71F1000404DB4FF07E
:100640000044404264EB0101141E73F1000405DB19
:100650001C464FF00043524263EB0403994208BF2B
:10066000904230BD01F0004330B421F0004150EA27
:10067000010206D00A0DA2F56072C1F31301002A2F
:1006800002DC30BC00207047440F44EAC104C100C2
:10069000E01830BC00EBC25000F031B8202A04DB77
:1006A000203A00FA02F1002070479140C2F1200385
:1006B00020FA03F3194390407047202A04DB203AC4
:1006C00021FA02F00021704721FA02F3D040C2F172
:1006D00020029140084319467047202A06DBCB17B9
:1006E000203A41FA02F043EAE07306E041FA02F3ED
:1006F000D040C2F1200291400843194670470029BA
:10070000A8BF7047401C490008BF20F00100704797
:1007100010B4B0FA80FC00FA0CF050EA010404BFF7
:1007200010BC704749B1CCF1200421FA04F411FA4D
:100730000CF118BF012121430843A3EB0C01CB1D91
:100740004FEA00614FEA102042BF002010BC704702
:1007500000EBC35010440029A4BF10BC7047401CDC
:10076000490008BF20F0010010BC704710B5141EEE
:1007700073F1000408DA401C41F1000192185B415A
:100780001A4301D120F0010010BD2DE9F04D924631
:100790009B4611B1B1FA81F202E0B0FA80F2203248
:1007A0009046FFF77BFF04460F4640EA0A0041EA05
:1007B0000B0153465A46084313D0114653EA010031
:1007C00019D0C8F140025046FFF777FF05460E46A4
:1007D000504659464246FFF761FF084305D00120C5
:1007E00004E020463946BDE8F08D0020054346EA86
:1007F000E0762C4337430A986305E40AA0EB08002F
:100800000022FD0A44EA47540A3002D5002001467E
:10081000E9E7010510196941DDE908450019694159
:10082000BDE8F04DA2E70000064C074D06E0E06889
:1008300040F0010394E8070098471034AC42F6D327
:10084000FFF7B8FCE0AC000800AD000870B58C18EC
:1008500010F8015B15F0070301D110F8013B2A11D4
:1008600006D110F8012B03E010F8016B01F8016BC1
:100870005B1EF9D12B0705D40023521E0DD401F8BD
:10088000013BFAE710F8013BCB1A921C03E013F886
:10089000015B01F8015B521EF9D5A142D8D30020BB
:1008A00070BD0000454910B54A6822F440324A60E4
:1008B0004A6843681A434A6001684A6822F48072B1
:1008C0004A6001684A68036942EA03224A60016893
:1008D0004A6822F040724A6001684A6883681A4395
:1008E0004A6001688A6822F400628A6001688A6846
:1008F000C3681A438A60816A6FF07062D1420168EE
:100900008A6822F070628A6001688A680CD0836A03
:100910001A438A6001688A6822F040528A6001683E
:100920008A68C36A1A4301E022F040528A60016873
:100930008A6822F002028A6001688A68836942EA52
:1009400043028A60016A002901684A680FD042F4B4
:1009500000624A6001684A6822F460424A600168A5
:100960004A68174C436A04EB43331A4301E022F40C
:1009700000624A600168CA6A22F47002CA620168B1
:10098000CA6A838B0F4C04EB03531A43CA62016893
:100990008A6822F400728A6001688A68036B42EAFE
:1009A00043228A6001688A6822F480628A60016852
:1009B0008A68406942EA8020886010BD00230140B7
:1009C00000E0FFFF0000F0FF3348DFED320A9FED4B
:1009D000330AC0ED020A80ED030A0321DFED332A5A
:1009E0000182C0ED182A80ED190A9FED310A9FEDB2
:1009F0002C1A80ED1A0AB3EE040A80ED1B0ADFED13
:100A0000291A9FED292A00F13803052283EC031AE5
:100A1000B1EE043AA0F880209FED260A80ED213A3D
:100A200080ED1C0A9FED240A80ED1D0AB2EE000A3B
:100A300080ED1E0A9FED210A80ED110A8830C0ED7D
:100A4000020ADFED1F0AC0ED030A0182C0ED182A79
:100A500080ED190AF2EE0E0AC0ED1A0ADFED190A4E
:100A600000F13801C0ED1B0ADFED170A81EC031A13
:100A7000A0F8802080ED213AC0ED1C0ADFED130ABA
:100A8000C0ED1D0AF2EE040AC0ED1E0A80ED110A47
:100A900070470000007C9248B02800206F12033B92
:100AA0000000964300007A45005043476F12833A96
:100AB00000007A43CDCCCC3E9A99193F000000004B
:100AC0000AD7A33BCDCC4C3F3333733F6666A63F7A
:100AD00010B51A491A4807F05BFC18491848C43188
:100AE000E83007F055FC16481649743007F050FC02
:100AF0001549164807F04CFC14481349743007F0A8
:100B000047FC10491148C431E83007F041FC0E4958
:100B10000F48C43107F03CFC0D480E49743007F013
:100B200037FC0C490A48C439E83007F031FC044866
:100B3000BDE810400849743807F02ABC7003002053
:100B4000001E0020F8040020800600205C1F00200A
:100B5000B8200020900900200808002030B50C467D
:100B600005000CD0022C0AD90548A11E828828460F
:100B700001F05AFA291901F8020D000A487030BD37
:100B80003403002030B50C46050008D0022C06D9ED
:100B9000FF22611E01F05EFA291901F8010C30BD37
:100BA00010B500223C212D4802F0DAFB08F0C6F90E
:100BB0002B4803F052F9FFF78BFFFFF705FF0022E8
:100BC0004FF40051274802F0CBFB05F0F9F801F093
:100BD0001FF800F073FD24480068C16841F010015F
:100BE000C16028222149204803F078FD2048006890
:100BF000C16841F01001C1601E221E491C4803F06B
:100C00006DFD1D480068C16841F01001C1600A22F5
:100C10001A49194803F062FD1E221949194803F0C8
:100C20005DFD194800F07EF9184800F07BF918487E
:100C300003F006F9174803F003F90021164803F002
:100C40003DFB0421144803F039FB0021134803F055
:100C500035FBBDE81040124801F0DEBD001C02402B
:100C6000E43B002000180240AC3D00203A3D00204B
:100C7000EC3D00201C3D00202C3E0020623D002069
:100C8000641B0020AC3E0020003B0020283B0020DD
:100C9000A83B00205C3C0020203C0020983C002029
:100CA000403A0020FEE708F0DFF8FCE710B52F48D7
:100CB00000F078F82E4801782E4841B18169491C2E
:100CC00081614169491C4161C169491CC161274970
:100CD000264C28310968A1F50072053A0ED0A1F51D
:100CE0000072063A25D0A1F50072073A3DD1C069DD
:100CF0003228214828D801F067F827E040693228D7
:100D00001E4802D801F074F801E000F0C3FE1B4851
:100D100001F06AF960881A4940BA00EB40004000CF
:100D20000860B0F5403F02DDA0F5C0200860052056
:100D300017E080693228134802D801F051F801E029
:100D400000F0A8FE06200CE000F016FF60880E49B7
:100D500040BAB0F5004F086002DDA0F580300860B1
:100D60000720BDE8104000F037BE10BD883A0020D3
:100D700000010020380F00208C1A00204C1A00209F
:100D8000F40000200C1A0020F000002010B5FFF73E
:100D90008DFF03480068416941F00201416110BDC7
:100DA000003B0020064A10B50346002102F1500026
:100DB00001F08EFE08B1002010BD0148007C10BD7E
:100DC000B03A0020094910B540F2FF120A60002233
:100DD0008A60CA6008220A610246012301F16800A4
:100DE00001F08CFD002800D0012010BD983A0020B1
:100DF00010B5254800F05AF82348244954300268B9
:100E00005C38A2F50073013B1AD0A2F50073023BD7
:100E10001ED0A2F50073033B22D0B2F5017F27D08C
:100E2000A2F5007111390AD11949D0E90220C1E9AE
:100E30000B2001F12C0090ED000A81ED040A10BD99
:100E4000428952BA0A80808940BA4880012016E05F
:100E5000428952BA8A80808940BAC88002200EE056
:100E6000428952BA0A81808940BA4881032006E04B
:100E7000428952BA8A81808940BAC8810420BDE87B
:100E8000104000F0A9BD0000903A0020FC1900209D
:100E9000380F002010B5FFF7ABFF03480068416929
:100EA00041F01001416110BD283B0020064A10B5F9
:100EB0000346012102F1440001F00AFE08B10020BE
:100EC00010BD0148007C10BDE43A0020094910B56E
:100ED0004FF404720A6000228A60CA6008220A6124
:100EE0000246022301F15C0001F008FD002800D059
:100EF000012010BDCC3A0020094910B54FF4007212
:100F00000A6000228A60CA6008220A61024602233F
:100F100001F15C0001F0F2FC002800D0012010BDBE
:100F2000CC3A002070B58AB0002104460120CDE9FA
:100F300006101B4D0E22009101910291039105F1C3
:100F4000280609920591AC4201D1049103E0B44214
:100F500001D1CDE9040208906946204601F032FD36
:100F6000204601F02DFFAC4208D10221204601F0BD
:100F7000B1FC2068416941F0020109E0B44208D1A6
:100F80001021204601F0A6FC2068416941F01001C3
:100F90004161054803494162044981620AB070BD5C
:100FA000003B0020F90E0008380F0020AD0E0008AD
:100FB000284890ED020AD0ED070A30EE200A80EDB5
:100FC000020A4178491CCAB200214270072A10D98E
:100FD000BDEEC00A10EE102A42F3CC0200EE102A39
:100FE000B8EEC00A80ED030A9FED1B0A417080ED48
:100FF000020A1A4A0369B2F900201A44026183788E
:101000005B1CDBB28370072B04D942F3CC028280D5
:10101000817001610F49C2883031130A4B708A70A8
:101020000278CA7090ED030A0323BDEEC00A10EEE9
:10103000102A12120A7110EE102A4A71B0F9040037
:10104000C21700EB9260800988710822044803F0FF
:10105000C4BB00006400002000000000FC19002058
:101060006C3D002008F0A0F8FFF7A2FF08F0BCF8E4
:10107000012008F06BF9F5E770B5244C244DD4F845
:10108000C8106842A94202DCC4F8C85003E081429B
:1010900001DBC4F8C8001F49D1F8C820AA4202DC0D
:1010A000C1F8C85003E0824201DBC1F8C8001A4A07
:1010B000D2F8C830AB4202DCC2F8C85003E0834229
:1010C00001DBC2F8C800154BD3F8C860AE4202DCA1
:1010D000C3F8C85003E0864201DBC3F8C800B4F887
:1010E000C8400F48250A05704470B1F8C8100C0AB2
:1010F0008470C170B2F8C8100A0A02714171B3F865
:10110000C8100A0A8271C17170BD00003C10002035
:1011100054C0FFFF10110020E4110020B81200207D
:101120006C0F002070B500F071FE042803D1234835
:1011300000210180418004F085FD204C204DA41D3C
:10114000B4F9000000EE100AB5F90000F8EEC00A8C
:1011500000EE100A1B48B8EEC00A04F0B9FCB4F95E
:10116000020000EE100AB5F90400F8EEC00A00EE25
:10117000100A1548B8EEC00A04F0AAFCB4F904003D
:1011800000EE100AB5F90800F8EEC00A00EE100AE9
:101190000E48B8EEC00A04F09BFCB4F9060000EE5D
:1011A000100AB5F90C00BDE87040F8EEC00A00EE78
:1011B000100A0748B8EEC00A04F08ABCD800002024
:1011C000FC1900203C10002010110020E411002028
:1011D000B81200202DE9F0478448854C2DED048B92
:1011E000C07AB8B18348844990ED000A10EE100A25
:1011F000884204DAB5EEC00AF1EE10FA0ADC606942
:10120000012807D0A069012804D0B5EEC00AF1EE8C
:1012100010FA7AD1DFF8E4914B202062D9F8C800A7
:10122000FFF7ACF908EE100A754F18EE100A21F01E
:10123000004141EC180BD7F8C800FFF79FF900EE0A
:10124000100A21F0004110EE100A53EC182BFFF7A2
:101250007CF8FFF707FA09EE100A6A4E84ED0C9A43
:10126000D6F8C800FFF78AF908EE100A664D18EEA6
:10127000100A21F0004141EC180BD5F8C800FFF727
:101280007DF900EE100A21F0004110EE100A53EC37
:10129000182BFFF75AF8FFF7E5F900EE100A5B4943
:1012A00084ED0D0A39EE000A10EE100A84ED0E0AE4
:1012B000884202DC0020A06003E0BDEEC00A84ED9D
:1012C000020A00F0D5FE5249DFF8488181ED000A9C
:1012D000D4ED080AB8EEE01AB4EEC10AF1EE10FA45
:1012E00004DC4D4AD8F8000090427BDD4B48F8EE14
:1012F000E00A8A4604F03CFD494B4A48D3ED000A17
:1013000070EE200AC0ED000A00E06BE09FED460A97
:10131000F5EEC00AF1EE10FA01D280ED000A434961
:10132000434A096800EE901AF5EEC00AF1EE10FA91
:1013300006D000EE901A90ED001AC1EE201A05E0DA
:10134000D0ED000AB3EE081AC0EE811AC2ED001A01
:1013500001681960374B3848994202DA80ED000A7B
:101360000DE0A168DFED350A323100EE101A61EEB2
:10137000A00AB8EEC00A80EE801A80ED001A97ED40
:10138000320AF8EEC00A90ED000A2D4860EE800A9D
:10139000FDEEE00AC7ED320AD5ED320AF8EEE00ABA
:1013A00060EE800AFDEEE00AC5ED320AD6ED320AA3
:1013B000F8EEE00A60EE800AFDEEE00AC6ED320AC1
:1013C000D9ED320AF8EEE00A20EE800ABDEEC00A3E
:1013D00089ED320A9AED000A80ED000A30EE400AEB
:1013E00088ED000ABDEC048BBDE8F08734000020D6
:1013F0009C000020480F002000002841B812002067
:101400003C100020E4110020101100200000A04139
:1014100080000020880000200000A0405819002013
:101420007C00002078000020000000003A1B002013
:101430008C0000200AD7233C9000002000007A4452
:10144000840000202DE9F05F894F2DED028B387864
:101450009FED888B894D0024894E40F26A5B4FF4E2
:10146000AC6A01280DD0DFED870A9FED870A05F0F1
:10147000B1F8A6F13C07854887ED000A417911B320
:1014800029E02968514502DA4FF42F6004E0296809
:10149000514502DD4FF21050B0802868FFF76EF81A
:1014A00000EE100A21F0004110EE100A53EC182B48
:1014B000FFF7C0F824D82968594521DC2868744909
:1014C00008803C7094E0827A2AB1D5ED0A0AF1EEE8
:1014D000600AC7ED030A90F81AC06E4A6E4B4FF0CF
:1014E0000108BCF1010F03D0BCF1000F0ED013E0D6
:1014F00041F65830B0801068984205DAC7F8148079
:10150000BDEC028BBDE8F09F7C61F9E790F818C054
:101510008146BCF1000F48D0DFF88091DFF880A150
:10152000E9B30129ECD1007E0128E9D15D4995EDAF
:101530000A0A4846D1ED000A04F0CAFA99ED260AD3
:101540004D465046F0EE400A06F088FE95ED270A1B
:10155000D5ED250A9AED011A00EE810AD5ED280A8B
:1015600030EE200ABDEEC00A85ED330AB8EEC00A9F
:10157000D7ED040A20EE200ABDEEC00A10EE100AD4
:1015800000B2B080FEF7FAFF00EE100A21F0004131
:1015900010EE100A9FED441B53EC112B00E030E0DD
:1015A000FFF730F8ACD2B480AAE72968514501DAD8
:1015B000B08804E02968514502DDB088401EB08043
:1015C0002868FEF7DBFF00EE100A21F0004110EE64
:1015D000100A53EC182BFFF72DF891D829685945BC
:1015E0008EDC28682A49088089F81A4089F8188012
:1015F0002F4804602148BDEC028BBDE8F05F04F089
:1016000081BD1168994202DAC7F8188000E0BC6118
:101610008472D7ED030A214870EE800A95ED0A0A1C
:1016200004F056FA99ED260A4C461D48F0EE400AA1
:1016300006F014FE94ED270AD4ED250A9AED011A5E
:1016400000EE810AD4ED280A30EE200ABDEEC00A71
:1016500010EE100AC4F8CC00FEF790FF9FED151BAA
:1016600053EC112BFEF718FFFEF799FFB08047E708
:101670004C03002000000000005895404C1A002048
:10168000D80000200000FA4400005C423400002032
:10169000EA000020480F00200000404134150020DF
:1016A0002C2100205C0000200000000000004E40C3
:1016B0004C0F00209A999999999909400649002060
:1016C0009FED060A088048808880054880ED000A62
:1016D00080ED010A70470000D800002000000000E3
:1016E000D8190020FFF7AEFEFFF71CFDFFF772FDD3
:1016F000FFF7C2FC012007F029FEF3E770B5414C6B
:10170000A5200026207013206070A6700125E570CA
:1017100005212046FFF736FA65710320A07180206D
:10172000E071D120207204F11E000A21007860725D
:10173000B0FBF1F201FB1202B0FBF1F0A67242EA3B
:101740000010E07230482573314A00686073010A66
:10175000A173010CE173000E207404F13600D0F87F
:101760001A0000EE100AB8EE400A10EE100A60747B
:1017700010EE100A000AA07410EE100A000CE074BB
:1017800010EE100A000E207504F15400D0F8060087
:1017900000EE100AB8EE400A10EE100A607510EE66
:1017A000100A000AA07510EE100A000CE07510EE89
:1017B000100A000E2076154812780179437941EA23
:1017C0004201C27C9200D3B15FF0000342EAC3023F
:1017D0001143104A807D127841EA021141EA40101B
:1017E0000D49087060761C210648FFF7B7F9BDE87F
:1017F0007040FF231C220349084802F0EEBF01237A
:10180000E4E70000041B0020480F00203400002003
:10181000640000200400002034030020AC3E0020BF
:1018200090F82013491CC9B280F82013C72902D9A7
:10183000002180F82013C9B200EB810181ED000A7C
:1018400090F8201300EE101AB8EE400AB4EEE00A49
:10185000F1EE10FA00DAC83100EE101AB8EE400AC4
:1018600030EE600ABCEEC00A10EE101A80F82113A8
:1018700070470000014801F017BB0000EC3E00205B
:10188000014801F011BB00000C400020014801F0AC
:101890000BBB00004C3F0020014801F005BB0000DD
:1018A0006C400020014801F0FFBA0000AC3F00206E
:1018B00001681823CAB2103AB2FBF3F2054B6FF37A
:1018C0000901032A9B5CC36500D9091D816508468F
:1018D0007047000050A4000810B5014600208B6935
:1018E0008A6A4FF0C07453B1B3F5005F15D072B17E
:1018F000012A0CD0022A0AD0032A09D104E01AB125
:10190000012A06D0022A03D1C96AC90100D50120E3
:1019100010BDC96AA142FAD010BD002AF7D0012A31
:10192000F2D0022AF3D0032AF3D010BD30B50468F8
:10193000256825F480252560046863608368402B52
:10194000036803D099600068C26030BD9A60006887
:10195000C16030BD704700002DE9F0410124194FEE
:10196000194E254604EB440006EBC000C07C8007FE
:1019700005FA04F081B201D5002200E001223846C8
:1019800001F0EEFC641CE4B2082CEBD9F07C4FF4BF
:10199000006182070D4804D50D4B04221A70002205
:1019A00000E0012201F0DCFC96F8EB004FF48041EE
:1019B0008207084801D5002200E00122BDE8F0417D
:1019C00001F0CEBC00180240821B00200010024033
:1019D000060000200014024000EB400110B508484A
:1019E00000EBC1042068606008F0D6F92060E17C5B
:1019F0008A0703D521F00201E174E06010BD000008
:101A0000821B0020F0B595B008F0C6F904465022BC
:101A100015496846FEF775FC0022144816466B46C9
:101A200002EB420100EBC10133F832500F8A65F33B
:101A30000B070F8203EBC205B1F81170AD88521C81
:101A400065F30F17A1F811704E61CD7CD2B245F04D
:101A50000305CD740C604C608C60CC600A2ADFD327
:101A60000349416115B0F0BD4CA30008821B002062
:101A7000ED640008054910B54FF48070086000F06F
:101A8000CBF903490120087010BD0000143C01404F
:101A9000E50E0020334940F68C230A683249A2F251
:101AA000DC529A4201D8012200E000220A7002684A
:101AB00042602E4A128852BA026002684368D21A03
:101AC000C260C26841F64C53DA4204DA0A7862B95D
:101AD000026A521C08E0C26841F64C539A4204DD87
:101AE0000A7812B9026A521E026202688369D21A27
:101AF00041F28833DA4202DA0A78012A0AD002680F
:101B00008369D21A41F288339A420BDD09780129A0
:101B100004D007E0016801F5005102E00168A1F579
:101B2000005101600168026A01EB42318160016885
:101B30008269DFED0F0A891A00EE101A016AB8EE09
:101B4000C00A60EE200A4FF4B472514300EE101A3E
:101B50009FED081AB8EEC00A00EE810A80ED0A0A6D
:101B600070470000B40F0020E8000020883A0020F1
:101B70000000B44300000039016841602049098831
:101B800049BA016001684268891AC160C16841F2BE
:101B90007C52D14206DA016A491C0162C16801F532
:101BA00000510CE0C16841F27C52914206DD016AAD
:101BB000491E0162C168A1F5005100E0C168C16120
:101BC0000168026A01EB4231816001688269DFEDE0
:101BD0000D0A891A00EE101A016AB8EEC00A60EE0A
:101BE000200A4FF4B472514300EE101A9FED061A0A
:101BF000B8EEC00A00EE810A80ED0A0A70470000C4
:101C0000883A00200000B44300000039FEE70000DD
:101C10004A48F1EE041AC0ED021A9FED490AF3EEAC
:101C2000090A80ED010AC0ED000A80ED050A80ED89
:101C3000040A80ED030A80ED080A80ED090A80EDB0
:101C4000060A80ED070AF7EE000AC0ED0A0AC0EDA9
:101C50000B0AB0EE081A80ED0C1A9FED3A1AB1EE9D
:101C60000E2A80ED0D1A80ED0E2A4030B3EE043AB4
:101C7000C0ED021A80ED010A80ED003A80ED050A00
:101C800080ED040A80ED030A80ED080A80ED090A60
:101C900080ED060ADFED2C1A80ED070AC0ED0A1A66
:101CA000C0ED0B1AF2EE0E2AC0ED0C2A80ED0D1AD3
:101CB00080ED0E2A4030DFED253AC0ED020AC0ED7E
:101CC000013AF3EE0E3AC0ED003A80ED050A80EDE0
:101CD000040A80ED030A80ED080A80ED090A80ED10
:101CE000060A80ED070AC0ED0A0AC0ED0B0AC0ED36
:101CF0000C2A80ED0D1AC0ED0E3A403080ED020A3C
:101D000080ED010A80ED003A80ED050A80ED040ABD
:101D100080ED030A80ED080A80ED090A80ED060ACD
:101D200080ED070AC0ED0A1AC0ED0B1AC0ED0C2AAF
:101D300080ED0D1A80ED0E2A704700008C1C0020EB
:101D4000000000000000FA43CDCC8C3FCDCCCC3D50
:101D500010B54FF47A742DED028B0221204604F069
:101D60000BFD9FED0D8A20EE080ABCEEC00A10EEB6
:101D7000100A05F047F80621204604F0FDFC20EE8D
:101D8000080ABDEC028BBDE81040BCEEC00A10EEA4
:101D9000100A05F03DB8000000006144FFF7D8BF0D
:101DA00010B54FF46174204605F02CF82046BDE8CC
:101DB000104005F02DB810B5044605F023F8204674
:101DC000BDE8104005F024B80449098849BA81618A
:101DD000816981608169416070470000883A002014
:101DE000816981608169016081694160704700009B
:101DF0000549B1F9021081618169816081690160E1
:101E00008169416070470000E80000200148807847
:101E100070470000040000206A4810B56A4990ED40
:101E2000040A6A4A81ED110AD0ED060AC1ED120AD0
:101E3000D2ED030AC0ED040AD2ED040AF1EE600A05
:101E4000C0ED050AD2ED050AC0ED060A90ED041AB0
:101E5000F0EE000A31EE201A9FED5D3AB4EEC01AA2
:101E6000F1EE10FA1ADD70EE200A90ED041AB4EECD
:101E7000E01AF1EE10FA11D280ED040A90ED040A96
:101E800010EE102AB2F1804F08DC90ED040A10EE3B
:101E9000102AB2F1404F01D880ED043A4D484B4A28
:101EA0000368243AA3F588509438B0F5486F12D8E7
:101EB000087880B94888A2F5805492ED000A04EBB6
:101EC0008004401C84ED000A4880800503D1012075
:101ED00008700020488091ED0D0AB3F5FA5F81ED9E
:101EE0000E0A91ED0B0A81ED0C0A92ED000A3CD925
:101EF0003648183806F084F981ED010A91ED010A9F
:101F0000354B10EE100A984206D291ED010A334B80
:101F100010EE100A98421FDB4869401C486191EDA1
:101F2000030AD1ED020A30EE200A81ED030AD2ED58
:101F3000000A91ED061A70EEC00A00EE100AB8EE23
:101F4000400A41EE000AC1ED0B0A81ED023A92ED22
:101F5000000A81ED040A0AE092ED000AD1ED040ABC
:101F600030EE600A81ED020A01E081ED0B0A91ED8D
:101F70000B0AD1ED0C0A1A4A30EE600A10EE100A74
:101F8000904202DBC86B401E0CE091ED0B0AD1EDD4
:101F90000C0A144A30EE600A10EE100A9042C86B28
:101FA00001D3401CC8634FF4B472504300EE100AD2
:101FB000D1ED0B0AB8EEC00A30EE200A81ED0D0A11
:101FC00010BD0000183A0020640E0020E439002003
:101FD00000000000B40F0020CDCCCCBDCDCCCC3D5A
:101FE0000000A5430000A5C310B590ED0A0A9FEDBF
:101FF0000C1A0446C0EE010A9FED0A0A20EE800A80
:1020000080ED0B0A90ED0B0A05F0C0FF84ED0C0A81
:1020100094ED0B0A05F020FD84ED0D0A10BD0000C3
:1020200000003443DB0F494010B558B1084C491E3D
:102030000BD310F8013B5340DBB234F8133083EA82
:102040001222F4E74FF6FF7010BD104610BD0000DD
:102050004CA1000810B5054C04E000BF10F8013B8E
:102060005340E25C491EF9D2104610BD4CA0000856
:1020700010B51C4C2DED028BB4F90210B4F9000020
:1020800000F03EF8B0EE408AB4F90610B4F904004E
:1020900000F036F838EE008AB4F90A10B4F90800F6
:1020A00000F02EF838EE008AB4F90E10B4F90C00E6
:1020B00000F026F80C4838EE000A806800EE900A1E
:1020C0000A4806F0CBF8094890ED010AB5EEC00ABF
:1020D000F1EE10FA02D2064890ED010ABDEC028B37
:1020E00010BD0000FC1900203A1B0020A021002098
:1020F0009C0000200148006870470000240C00404C
:1021000070B505462DED068B0846FEF737FA0E46EC
:1021100046EC180B9FED2D0B044653EC102B51ECA5
:10212000180BFEF7B9F953EC182BFEF7B5F941EC93
:10213000190B46EC1A4B2846FEF720FA0D4645ECE3
:10214000180B9FED240B044653EC102B51EC180B8D
:10215000FEF7A2F953EC1A2BFEF79EF945EC184B4B
:102160009FED1E0B41EC1A0B53EC102B51EC180B8E
:10217000FEF792F953EC182BFEF78EF941EC180B91
:102180001848F5EE000A90ED010A20EE200A10EE44
:10219000100AFEF723FA53EC182BFEF7D6F853EC8F
:1021A0001A2BFEF7D2F853EC192BFEF7CEF8FEF7F8
:1021B00059FA00EE100A0C48F0EE400A06F04EF80C
:1021C000094890ED010ABDEC068B70BD0E9ADC014A
:1021D00008B6553E89A1D2118BDBC23E2ADEBA3643
:1021E000EA15853E9C000020A02100202DE9F04149
:1021F00069480621DFF8A481B0F90400A0F58060E9
:1022000090FBF1F000EE100AB8EEC00A88ED110A5A
:1022100000F0FCF86248D0ED000A624890ED000A38
:10222000614806F01BF86148D0ED000A604890ED67
:10223000000A604806F012F85F48D0ED000A5F48D7
:1022400090ED000A5E4806F009F85E4C5E4E5F486D
:10225000D4ED260A96ED260A06F000F85C4D5D489E
:102260005D4995ED010AD0ED000A70EE200A91ED6E
:10227000000A5B4970EE800AFDEEE00AC6ED1D0A19
:10228000D5ED010A90ED001A544870EE810A30EE47
:10229000800AD0ED000A304670EE200A91ED000A67
:1022A00003F016FC96ED270AD6ED280A474F4D4954
:1022B00030EE200AD6ED250A97ED011A00EE810ACC
:1022C000BDEEC00A10EE100AC6F8CC00884202DD4E
:1022D0004942884201DBC6F8CC1096ED330A3948F2
:1022E0004646F8EEC00A98ED100A03F0F1FB94EDB3
:1022F000270AD4ED280A97ED021A3B4830EE200A4F
:10230000D4ED250A6FF00D0110EEC10ABDEEC00A32
:1023100084ED330A95ED000AD0ED000A334C30EE1F
:10232000200ABDEEC00A10EE100A6067884201DC88
:10233000616703E0192801DB1920606794ED1D0A2D
:102340002B492A48F8EEC00A91ED000A03F0C0FBC1
:1023500094ED320A2748F8EEC00A96ED0E0A03F013
:10236000B7FB27492448D1ED000A90ED0A0A23481B
:10237000F8EEE00A03F0ACFB2048234990ED320A66
:102380002048F8EEC00A91ED000ABDE8F041B8EE31
:10239000C00A03F09DBB0000B0190020040100201A
:1023A0005C03002054030020001E00206003002076
:1023B00068030020E81E002064030020580300206A
:1023C000741E0020DC160020081600205C1F002070
:1023D000D819002054000020540A0020600000207A
:1023E000180F0020D4FEFFFF3C0E0020B017002085
:1023F000140F0020841800208C1A00206014002084
:10240000F80000208C130020F00000200D480F4938
:1024100090ED0A0A0C4880ED0D0A91ED0A0A0C496C
:10242000B1EE400A80ED0F0A91ED000A0949B1EEC4
:10243000400A80ED0E0A91ED000AB1EE400A80EDEF
:10244000100A70470C1A0020040100204C1A0020CA
:102450002C0F0020300F002010B543F698211748AC
:1024600003F01CFE1648174AD0F8CC10914202DD4A
:102470005242914201DBC0F8CC201348134AD0F8F5
:10248000C810914202DD5242914201DBC0F8C820DF
:102490000F480021017041708170C1700749B1F887
:1024A000C8100A0A0271417106F07EFE0848FEF764
:1024B00089FCBDE8104006F097BE00008C13002098
:1024C000DC160020B88EFFFF8418002078ECFFFF98
:1024D000740F00202DE9F047FFF798FF3D4C3E4D6B
:1024E0003E48D4ED260A95ED260A05F0B7FE3C4F8E
:1024F00004214FF6E8593970484604F03DF9394E49
:102500003948D6ED0F0A20EE200AD0ED010A284600
:1025100003F0DEFA95ED270AD5ED280ADFF8BC8036
:10252000204630EE200AD5ED250A98ED011A00EE7E
:10253000810ABDEEC00A85ED330AF8EEC00A96EDB9
:10254000100A03F0C5FA94ED270AD4ED280A98ED95
:10255000021A032130EE200AD4ED250A484610EE77
:10256000C10ABDEEC00A84ED330A397004F004F9E3
:102570001E481F4DD0ED000A284620EE200AD5ED5A
:102580001D0AF8EEE00A03F0A3FA95ED320A1948A5
:10259000F8EEC00A96ED0E0A03F09AFA1649D4F83E
:1025A000CC00884202DD4942884201DBC4F8CC10ED
:1025B00041F288310F4803F071FD10490020087086
:1025C00048708870C87008714871BDE8F0470846C7
:1025D000FEF7F8BBDC160020081600205C1F002068
:1025E0003303002004010020D8190020140F00201C
:1025F000B017002084180020B88EFFFF740F002051
:10260000FFF7F4FDFFF728FF022006F09FFEF7E733
:1026100078B50024009490F83C20012A19D00122BA
:1026200080F83C200A6807230568092A13D9EE6858
:102630000A3A02EB420293409E43EE600A788B68AE
:102640000A3A02EB420293400268D5682B43D360FA
:1026500010E0022078BD2E6902EB420293409E43B7
:102660002E610A788B6802EB42029340026815697A
:102670002B4313614A681F23072A13D205686E6B28
:10268000521E02EB820293409E436E630B790A88CE
:102690005B1E92B203EB83039A4003685D6B2A438F
:1026A0005A6327E005680D2A12D22E6BD21F02EB67
:1026B000820293409E432E630B790A88DB1F92B2FD
:1026C00003EB83039A4003681D6B2A431A6311E0EE
:1026D000EE6A0D3A02EB820293409E43EE620B7962
:1026E0000A880D3B92B203EB83039A400368DD6ACC
:1026F0002A43DA62174B0568154A9D4206D10D68D8
:10270000122D03D1556845F48005556005689D423A
:1027100019D1114D0B68AB4201D0112B13D1536865
:1027200043F4000353600968A9420CD10B490C4AD9
:102730000968B1FBF2F101EB8101490000E0491E9B
:1027400000910029FBD180F83C40002078BD0000BA
:10275000002301400020014012000010C40F00209F
:1027600040420F0070B504004FF0000503D0206C0C
:10277000002610B107E0012070BD666484F83C605B
:10278000204600F019F8206CC00610D4206C20F40C
:10279000885040F0020020642046FEF783F866640B
:1027A000206C20F0020040F00100206400E00125D0
:1027B00084F83C60284670BD10B586B004461421EC
:1027C0006846FDF7B7FD1149206888421CD11048C2
:1027D0000021026842F480720260006800F4807098
:1027E00005900B481438026842F004020260006849
:1027F00000F004000590022000900320CDE90101C3
:102800006946044800F0C6FC06B010BD0020014037
:10281000443802400008024018B50021009190F8A9
:102820003C20012A07D0012280F83C2002689368EE
:10283000DB0702D011E0022018BD936843F00103CA
:102840009360204A204B1268B2FBF3F202EB420283
:1028500000E0521E0092002AFBD102689368DB0759
:102860002DD0036C40F20164A34343F480730364EE
:1028700053685B0505D5036C23F4005343F4805380
:102880000364036CDB0404D5436C23F00603436448
:1028900000E0416480F83C100C496FF022031360A3
:1028A00049680068C90602D00949884207D1816891
:1028B00011F0405F03D1816841F0804181600020C8
:1028C00018BD0000C40F002040420F00002301404B
:1028D0000020014090F82020012A09D090F8202003
:1028E000022A05D0416A41F48021416201207047EB
:1028F000006842690A43426100207047F0B590F8D1
:102900002040012C07D090F82040022C03D0416ACF
:1029100041F4802153E00468A5686D0105D4A568E1
:102920002D0102D4A568ED0046D5A4680125C4F3A5
:102930000164A5401D608D684FF4C0739DB1CE68E1
:1029400035434E6845EAC605066803EB0417F551A2
:102950004FF4C275076805EB04150E697E51097DB9
:10296000012905D009E00E88CD6845EA4655EBE718
:1029700001684E5946F480764E511179D2F80550CF
:102980004FF4C67641EA0521056806EB0416A95105
:102990001178D2F801204FF4C47541EA022102688F
:1029A00005EB04155151006803EB0411425842F045
:1029B000010242500020F0BD416A41F40011416221
:1029C0000120F0BD10B590F82020012A09D090F820
:1029D0002020022A05D0416A41F480214162012071
:1029E00010BD3A48D0F8002242F00102C0F800229F
:1029F000D0F8002222F47C52C0F80022D0F8002245
:102A00004B6A42EA0322C0F800220B7D01229A4061
:102A1000D0F81C329343C0F81C32CB69B3B9D0F85C
:102A20000C329343C0F80C328C894B6864F31F431B
:102A30004C6900EBC404C4F840320C890B6864F3A1
:102A40001F434C6900EBC404C4F84432CB69012B2A
:102A500016D1D0F80C321343C0F80C320C884B68F6
:102A600064F31F434C6900EBC404C4F840320C8982
:102A7000CB6864F31F434C6900EBC404C4F84432D0
:102A80008B69002BD0F804320ED01343C0F8043207
:102A90000B69002BD0F8143208D01343C0F814325D
:102AA000096A012904D008E09343EFE79343F5E76F
:102AB000D0F81C121143C0F81C12D0F8001221F0FB
:102AC0000101C0F80012002010BD000000640040A9
:102AD00030B590F82040012C07D090F82040022C0F
:102AE00003D0416A41F4802109E011B1012909D0E4
:102AF0000CE00468E46807E0416A41F400114162B7
:102B0000012030BD04682469A407F5D04FF4D874BF
:102B1000056804EB01142D5915F00405956005684E
:102B20002D5942D0ED08556005682C59C4F3400476
:102B3000D4604FF4DA74056804EB01142D5905F0E4
:102B40000F05156105682D59C5F3072595610568C1
:102B50002C59240C54614FF4DC72046802EB01120E
:102B6000A4581C700468A458240A5C700468A45813
:102B7000240C9C700468A258120EDA704FF4DE72B6
:102B8000046802EB0112A4581C710468A458240ABA
:102B90005C710468A458240C9C710468A258120E3D
:102BA000DA7129B1012909D00DE06D0D1560BBE77F
:102BB0000068C16841F02001C16004E0006801695B
:102BC00041F020010161002030BD70B5040003D048
:102BD00094F8200010B104E0012070BD204600F000
:102BE00081F82068016821F00201016000F0BEFB5D
:102BF0000546052604E000F0B9FB401B0A2811D861
:102C0000206840688007F6D42068016841F001011F
:102C1000016000F0ABFB05460BE000F0A7FB401B9A
:102C20000A2806D9606A40F40030606284F82060A7
:102C3000D2E720684068C007EFD0207E01282068D6
:102C400001683DD021F080010160607E012820688C
:102C5000016838D021F040010160A07E0128206881
:102C6000016833D021F020010160E07E0128206856
:102C700001682ED041F010010160207F01282068FA
:102C8000016829D021F008010160607F01282068D7
:102C9000016824D021F004010160D4E90201084355
:102CA000D4E90412114308436168491E08432168AE
:102CB000C86100206062012084F82000002070BDFF
:102CC00041F08001C0E741F04001C5E741F020013B
:102CD000CAE721F01001CFE741F00801D4E741F045
:102CE0000401D9E7F0B587B0044614216846FDF722
:102CF00021FB2E4B2E48DFF8B0E0196AD4F800C053
:102D00002B4A03250226092710300024491CF445CC
:102D10001AD11962012907D1016841F000710160DF
:102D2000006800F000700590106840F00800106026
:102D30001068CDE9005600F00800CDE9047069463E
:102D40001C48CDE902452BE0DFF86CE0F44529D1C1
:102D5000D0F800C04CF0806CC0F800C0D0F800C0C3
:102D600001290CF0806CCDF814C0196207D10168FC
:102D700041F000710160006800F00070059010687B
:102D800040F002001060106802AB00F002000590F5
:102D90004FF44050CDE9000683E8B000694607488B
:102DA00000F0F8F907B0F0BD00640040380F0020D3
:102DB00030380240000C024000680040000402402D
:102DC00070B5044690F82000012804D0606A40F4F1
:102DD0000020606218E0022084F82000206801686A
:102DE00021F00101016000F0C1FA05460EE000BFCC
:102DF00000F0BCFA401B0A2808D9606A40F4003091
:102E00006062052084F82000012070BD20684068C1
:102E1000C007EDD1606270BD2DE9F0410446876DB9
:102E200000F0A4FA064694F835000025022806D0E2
:102E30008020606584F834500120BDE8F08120686E
:102E4000016821F0160101602068416921F08001CC
:102E50004161206C08B9A06C20B12068016821F0A4
:102E6000080101602068016821F0010101600BE0A8
:102E700000F07CFA801B052806D92020606504F844
:102E8000345F03206070D8E720680068C007EFD186
:102E900094F85C103F208840B86004F8345F01204B
:102EA00060700020C9E700002DE9F84304464FF0A8
:102EB0000009CDF8009063484FF41651A56D0068E5
:102EC000B0FBF1F72E6894F85C10082000FA01F1CD
:102ED00031420FD021680A6852070BD50A6822F0E8
:102EE00004020A6094F85C108840A860606D40F0AD
:102EF0000100606594F85C104FF0010808FA01F0D9
:102F0000304208D021684969090604D5A860606D7F
:102F100040F00200606594F85C1004208840304264
:102F200008D021680968890704D5A860606D40F061
:102F30000400606594F85C1010208840304218D07E
:102F400021680968090714D5A86020680168490349
:102F500004D50068000308D5A16C07E00168C90525
:102F600003D4016821F008010160216C09B12046F9
:102F7000884794F85C1020208840304231D0216886
:102F80000968C9062DD5A86094F835000528206881
:102F9000016806D0490347D5006800031DD4616C61
:102FA0001CE021F0160101602068416921F08001D8
:102FB0004161206C08B9A06C20B12068016821F043
:102FC0000801016094F85C103F208840A86084F8F4
:102FD000349084F83580216D1FE0E16B09B1204603
:102FE0008847606D00282BD0606DC00714D0052085
:102FF00084F835002068016821F001010160009823
:10300000401C0090B84203D820680068C007F6D181
:1030100084F8349084F83580E16C002910D001B038
:103020002046BDE8F04308470168C905D5D40168CA
:1030300021F01001016084F8349084F83580CCE7E9
:10304000BDE8F883C40F00202DE9F041044600F0EC
:103050008DF906465CB1002584F83450022084F8CE
:1030600035002068016821F0010101600DE00120B8
:10307000BDE8F08100F07AF9801B052805D92020F1
:103080006065032084F83500F2E720680068C00717
:10309000F0D12268116820480140D4E901031843A7
:1030A000D4E903363343184363691843A3691843CB
:1030B000E3691843236A18430843616A042903D16A
:1030C000D4E90B1319430843106020684069666A0D
:1030D00020F0070130460E43012704280CD1A06AD6
:1030E0000643E06A40B12046FEF7F6FB20B14020DF
:1030F000606584F83570BAE7206846612046FEF7BF
:10310000D7FB94F85C203F2191408160656584F88D
:1031100035700020ACE700003F8010F02DE9F04151
:103120000446866D90F83400002501280DD001205A
:1031300084F8340094F835700020012F07D084F80B
:10314000340002252846BDE8F0810220FBE7022773
:1031500084F8357060652046FEF7E8FB94F85C1053
:103160003F208840B0602068016841F0160101608E
:103170002068416941F080014161206C20B12068E4
:10318000016841F0080101602068016841F0010117
:103190000160D7E72DE9F84FDFF890B100224FF03A
:1031A00001084FF0030A4FF00F090BF1040E00BFA6
:1031B0000B6808FA02F42340A3426ED14D68022D39
:1031C00001D0122D0ED1D50800EB850CDCF8205073
:1031D0005607F70E09FA07F6B5430E69BE402E43AF
:1031E000CCF82060066855000F790AFA05FC07F054
:1031F000030726EA0C06AF40374307604E68012EEE
:1032000005D0022E03D0112E01D0122E0ED18768C8
:10321000CE6827EA0C07AE403E4386604668A64368
:103220000C79C4F30014944034434460C4688E683D
:1032300024EA0C04AE402643C6604C68E4006FD517
:103240003B4C256845F480452560246822F0030541
:1032500004F480440094374C2E19D6F8084895079A
:103260002F0F09FA07F5AC43334DA84201D10025D1
:103270002EE0324DA84201D1012529E0304DA8426F
:1032800001D1022524E02F4DA84201D103251FE0E2
:103290002D4DA84202D104251AE041E02B4DA84251
:1032A00001D1052514E02A4DA84201D106250FE0E1
:1032B000284DA84201D107250AE0274DA84201D197
:1032C000082505E0254DA84201D1092500E00A2581
:1032D000BD402543C6F80858DBF800405D464E68FF
:1032E0009C43F60300D51C432C60DEF80040754675
:1032F0004E689C43B60300D51C432C600B4D08352B
:103300002C684E689C43F60200D51C432C60074D88
:103310000C352C684E689C43B60200D51C432C60CB
:10332000521C102AFFF444AFBDE8F88F003C014066
:1033300044380240003001400000024000040240D6
:1033400000080240000C024000100240001402403D
:1033500000180240001C02400020024000240240ED
:103360000AB1816170470904FBE7000001488068E9
:1033700070470000B80F00200248816802781144AD
:1033800081607047B80F00200B4810B5016841F408
:1033900000710160016841F480610160016841F4DD
:1033A00080710160032000F0D1F8002000F006F8E1
:1033B00000F03EF8002010BD003C024010B5014670
:1033C00088B00022362000F0A1F8362000F093F8F3
:1033D00013480024016841F010010160006805A94C
:1033E00000F010000690684600F092F900F0B0F985
:1033F0000C494000B0FBF1F10C480B4A491E026039
:1034000040F2E732C0E90324C0E9011400F0AFFC48
:1034100010B1012008B010BD044800F01EFDF9E70E
:103420004038024040420F0000100040CC400020D5
:103430000C4882B0016841F480410160006800F4EA
:10344000804000900748001F016841F080510160F2
:103450000068002200F0805000900F21901E02B002
:1034600000F054B8443802402DE9F04116460F46AA
:10347000040004D094F83900002518B107E00120B9
:10348000BDE8F08184F83850204600F099FF2420F0
:1034900084F839002068C16821F40051C1602046D9
:1034A00003F0DEFD2068016921F49041016120688C
:1034B000416921F02A0141612068016921F00F0171
:1034C000016120680169394301612068C16821F404
:1034D0000061C1602068C1683143C1602068C16873
:1034E00041F40051C160E563202084F8390084F87C
:1034F0003A000020C4E700F01F020121914040097A
:10350000800000F1E020C0F800117047F0B40E4BCD
:103510001B680C46C3F30223C3F10705042D00D931
:103520000425191D072901D2002300E0DB1E012616
:1035300006FA05F1491E214099409E40761E16402C
:103540003143F0BC02F055BA0CED00E0064900F042
:10355000070208684FF6FF03184040EA0220034ABA
:1035600010430860704700000CED00E00000FA0511
:103570002DE9F8431748016841F080510160006867
:10358000154F00F08050012600903E64FFF7EEFEDC
:1035900005464FF47A78114C05E000BFFFF7E6FED0
:1035A000401B40450DD86068C003F7D57E64FFF727
:1035B000DDFE0546464607E0FFF7D8FE401BB04259
:1035C00002D90320BDE8F88360688003F4D50020A9
:1035D000F8E700004038024000000E420070004052
:1035E0002DE9F0470E46050065D0DFF81481D8F8C4
:1035F0000000F7B200F00F00B04207D288F8007068
:10360000D8F8000000F00F00B04254D128683D4CBB
:10361000810712D5400703D5206840F4E0502060B0
:103620002878000703D5206840F4604020602068B7
:10363000A96820F0F000084320602878C0072DD04A
:10364000304968680839012812D0022813D00328AD
:1036500011D00968890700292DDA216821F00301BA
:1036600001432160FFF782FE814641F2883A0EE075
:1036700009688903EFE709688901ECE7FFF776FE3F
:10368000A0EB0901514502D90320BDE8F08720686D
:10369000696800F00C00B0EB810FEFD1D8F8001092
:1036A000404601F00F01B14207D90770006800F0F1
:1036B0000F00B04201D00120E7E72878400705D588
:1036C0002068E96820F4E05008432060287800076B
:1036D00006D52068296920F4604040EAC1002060D6
:1036E00000F056F82168084AC1F30311515CC84044
:1036F000064908600020FFF761FE0020C5E70000D2
:10370000003C0240083802405CAC0008C40F0020B6
:103710000F2202600C4A136803F00303436013682E
:1037200003F0F0038360136803F4E053C36012688E
:103730004FF4E05303EAD20202610448006800F04B
:103740000F0008607047000008380240003C02404B
:103750000448054900680968044AC1F38221515CA4
:10376000C8407047C40F0020083802406CAC000805
:103770000448054900680968044AC1F34231515CB4
:10378000C8407047C40F0020083802406CAC0008E5
:10379000154810B5006810F00C02144813D01449F5
:1037A000042A0FD0082A0ED10F4C241F2268236848
:1037B00002F03F025B0207D52068C0F38810A0FB2F
:1037C000010106E0084610BD2168C1F38811A1FB84
:1037D00000010023FCF764FD2168C1F30141491C8D
:1037E0004900B0FBF1F010BD083802400024F4009D
:1037F000001BB7002DE9F84F050076D02878DFF8D8
:10380000F8B2BE4CC00749D0DBF800105846C1F3EF
:103810008101012908D00068C0F3810002280AD183
:10382000201D0068400206D52068800336D56868F0
:103830000028E2D032E06868B0F5803F10D0B0F5E3
:10384000A02F206810D020F480302060206820F461
:10385000802020606868A0B1FFF788FD06460CE074
:10386000206840F48030F4E740F480202060F7E7DF
:10387000FFF77CFD801B642873D820688003F7D590
:103880000CE0FFF773FD064605E000BFFFF76EFD95
:10389000801B6428F0D820688003F7D42878DFF8EC
:1038A000608280074FF000093ED5DBF800105846D3
:1038B00011F00C0F09D00068C0F3810002280BD171
:1038C0008D48001F0068400206D42068800715D587
:1038D000E868012809D111E0E868B8B10120C8F80A
:1038E0000000FFF743FD064605E002E1FFF73EFD5D
:1038F000801B0228C0D820688007F7D52068296976
:1039000020F0F80040EAC10020600DE0C8F8009007
:10391000FFF72CFD064604E0FFF728FD801B022878
:103920001FD820688007F7D42878000722D5724E68
:10393000744869696C3671B101210160FFF716FDA9
:10394000074604E0FFF712FDC01B022809D83068C3
:103950008007F7D50EE0C0F80090FFF707FD074697
:1039600005E083E0FFF702FDC01B02287ED8306827
:103970008007F7D42878400768D5DFF87CA10027B6
:103980000AF1380ADAF80000C0000BD4DAF80010A7
:1039900041F08051CAF80010DAF80000012700F069
:1039A00080500090584E3068C00510D4306840F404
:1039B00080703060FFF7DAFC009005E0FFF7D6FC7E
:1039C0000099401A022851D83068C005F6D54A4EF1
:1039D000A868683601280FD00528306810D020F07C
:1039E00001003060306820F004003060A868B8B191
:1039F000FFF7BCFC00900FE0306840F00100F4E7F6
:103A000040F004003060F7E7FFF7B0FC0099411A7E
:103A100041F28830814264D830688007F4D50EE0E6
:103A2000FFF7A4FC009007E0FFF7A0FC0099411A03
:103A300041F28830814254D830688007F4D42FB1E5
:103A4000DAF8001021F08051CAF80010A869C0B35C
:103A5000DBF80010C1F3810102294AD00228484650
:103A600007D0C8F86000FFF781FC00E039E00546A8
:103A70003AE04746C8F86000FFF778FC064604E0E5
:103A8000FFF774FC801B02282BD820688001F7D434
:103A9000D5E907010843A96A1C4A490802EB01411C
:103AA0006A6A41EA8211084395F82C1040EA0161E4
:103AB0001148001F016001203866FFF757FC0546DA
:103AC00005E014E0FFF752FC401B022809D82068EB
:103AD0008001F7D50BE000BFFFF748FC401B022830
:103AE00002D90320BDE8F88F20688001F4D40020BB
:103AF000F8E70120F6E700000838024000380240ED
:103B000000004742800E4742007000400000FFFF67
:103B10002DE9F047044600790026894601280CD09B
:103B2000012727716079B046012808D05FF00106AF
:103B300084F804803046BDE8F0870220FBE70220CD
:103B40006071FFF713FC05460BE000BFFFF70EFCAA
:103B5000401B022805D90420607184F804800320EA
:103B6000E9E720684068C043C007EFD1206880685B
:103B7000A060C9F800006771DAE710B5040002D050
:103B8000607910B106E0012010BD002020712046B0
:103B900000F00CF8022060712068016841F0040117
:103BA000016001206071002010BD000008B50068B0
:103BB0000649884208D10648016841F04001016089
:103BC000006800F04000009008BD000000080650AA
:103BD0003438024070B5040005D00025A56294F881
:103BE000510010B106E0012070BD84F8505020460D
:103BF00000F030F8022084F851002068016821F0BC
:103C000040010160D4E901010843D4E903121143E2
:103C1000084361690843218B01F400710843E1699D
:103C20000843216A0843A16A084321680860A06923
:103C3000042101EA1040616A084321684860206855
:103C4000C16921F40061C1616565012084F85100FA
:103C5000002070BD10B586B0044614216846FCF7FC
:103C600069FB14492068884221D113480021026869
:103C700042F480120260006800F4801005900E4843
:103C80001438026842F020020260006800F0200050
:103C900005904FF4607000900220CDE901010320EF
:103CA00003900520049069460448FFF773FA06B0B4
:103CB00010BD000000500140443802400014024092
:103CC0007047704710B590F83820012A25D001229E
:103CD00080F83820CA688C6822F4407222434C680D
:103CE00022F4806222430C6822F4006222430C69B1
:103CF00022F4805222434C6922F4005222438C6900
:103D000022F48042224322F400410268002321432E
:103D1000516480F83830002010BD022010BD30B54D
:103D200090F83820012A20D0012280F83820022380
:103D300080F8393003685C6824F070045C600368C4
:103D40005C680D682C435C6003689C6824F0800408
:103D50009C6003689C6849680C439C6080F839202B
:103D6000002180F83810084630BD022030BD10B563
:103D7000040003D094F8390010B107E0012010BD11
:103D8000002084F83800204600F00CF8022084F867
:103D90003900211D206802F001FF012084F839005C
:103DA000002010BD08B501681F48B1F1804F0BD04D
:103DB0001E4A914210D1016841F002010160006881
:103DC00000F00200009008BD016841F001010160AF
:103DD000006800F00100F5E7154A914207D101683B
:103DE00041F004010160006800F00400EAE7114AB4
:103DF000914207D1016841F008010160006800F0BC
:103E00000800DFE70C4A914202D10748001DD2E7C3
:103E10000A4A9142D7D1016841F04001016000682F
:103E200000F04000CEE700004038024000040040AF
:103E300000080040000C0040000401400018004051
:103E4000022180F8391001680A6842F001020A6014
:103E5000012180F83910002070470168CA6842F0DB
:103E60000102CA600068016841F0010101600020A0
:103E7000704770B5044690F83800012817D0012526
:103E800084F83850022084F839002068826822F0D3
:103E9000770222F47F4282600868502837D00DDC18
:103EA000202859D005DC88B3102841D151E00220E8
:103EB00070BD302853D040283AD13FE060282ED042
:103EC00070280BD0B0F5805F03D0B0F5005F2FD124
:103ED00010E02068816821F0070115E0CB68D1E986
:103EE0000121206802F0C5FE2168886840F0770053
:103EF00088601DE0CB68D1E90121206802F0B9FE9D
:103F00002068816841F48041816011E01EE0CA6848
:103F10004968206802F082FF5021206806E0CA68E4
:103F20004968206802F08BFF6021206802F0ABFE38
:103F300084F83950002084F8380070BDCA68496898
:103F4000206802F06BFF40212068EFE70021206825
:103F5000ECE710212068E9E720212068E6E730211E
:103F60002068E3E7704770B50446006801694FF0C8
:103F70000005C943890715D4C168C943890711D40D
:103F8000E91E0161012020762068806980072046B3
:103F900002D0FFF7E7FF04E000F00AF9204600F046
:103FA0008CF9257620680169C943490717D4C1688F
:103FB000C943490713D46FF0040101610220207640
:103FC0002068806910F4407F204602D0FFF7CAFFC6
:103FD00004E000F0EDF8204600F06FF92576206847
:103FE0000169C943090716D4C168C943090712D436
:103FF0006FF008010161042020762068C069800705
:10400000204602D0FFF7AEFF04E000F0D1F82046D2
:1040100000F053F9257620680169C943C90617D411
:10402000C168C943C90613D46FF0100101610820AB
:1040300020762068C06910F4407F204602D0FFF748
:1040400091FF04E000F0B4F8204600F036F9257640
:1040500020680169C943C90708D1C168C943C907B4
:1040600004D1891E0161204600F072F920680169BF
:10407000C943090609D4C168C943090605D46FF0CC
:10408000800101612046FFF71BFE20680169C943DA
:10409000490609D4C168C943490605D46FF04001F7
:1040A0000161204600F05EF920680169C943890674
:1040B0000BD4C168C943890607D46FF020010161A0
:1040C0002046BDE87040FFF7FCBD70BD30B587B03D
:1040D000044614216846FCF72DF92C4D2368002175
:1040E0002B4820240222AB420FD1036843F0020385
:1040F00003600068009400F002000590CDE9012102
:10410000CDE903126946234813E0234DAB4214D195
:10411000036843F008030360006800F0080005909E
:104120004FF4E0400090CDE90121CDE9031269464A
:104130001A48FFF72FF807B030BD194DAB4210D128
:10414000036843F4807303600068009400F4807097
:104150000590CDE901210320CDE9031069461148FE
:10416000E7E7114CA342E6D1036843F08003036004
:10417000006800F08000059040200090CDE901210A
:104180000920CDE9031069460848D2E70004004041
:10419000303802400004024000080040000C024099
:1041A000000401400020024000180040001C0240B2
:1041B000704770B5044690F838000D4601280DD0C0
:1041C000012684F83860022084F8390042B1042ABC
:1041D00018D0082A2AD00C2A4DD139E0022070BD0F
:1041E000206802F059FD2068816941F00801816171
:1041F0002068816921F004018161206881692A6950
:10420000114311E0206802F073FD2068816941F4D8
:10421000006181612068816921F480618161206889
:1042200081692A6941EA0221816124E0206802F063
:1042300091FD2068C16941F00801C1612068C16930
:1042400021F00401C1612068C1692A69114311E0AC
:10425000206802F0AFFD2068C16941F40061C161CE
:104260002068C16921F48061C1612068C1692A693F
:1042700041EA0221C16184F83960002084F83800E5
:1042800070BD10B5040003D094F8390010B107E0F8
:10429000012010BD002084F83800204600F00CF802
:1042A000022084F83900211D206802F077FC0120EB
:1042B00084F83900002010BD7047704710B50446DF
:1042C0000068012202F0CAFC08492068884202D036
:1042D0000749884203D1416C41F4004141642068A0
:1042E000016841F001010160002010BD00000140A3
:1042F0000004014010B504460068002202F0AEFC44
:10430000114841F2111221689310814202D00F48E6
:10431000814209D1086A104206D1086A184203D1C5
:10432000486C20F4004048642068016A114206D1BC
:10433000016A194203D1016821F0010101600120E5
:1043400084F83900002010BD000001400004014045
:1043500000680349884201D1FFF70EB8704700009A
:1043600000100040704710B504460068416994F899
:104370003920C1F3C011212A0BD151B1416921F07B
:1043800080014161206B08B1FEF746FD204602F036
:104390005DFE2068416994F83A20C1F38011222A19
:1043A0000BD151B1416921F040014161606B08B10D
:1043B000FEF732FD204602F03BFE002010BD7047A4
:1043C0002DE9F04F87B0054614216846FBF7B2FF90
:1043D000B348DFF8C8821038D5F800C00024B04BCD
:1043E00002220321DFF8BC92061587154FF0080A58
:1043F0004FF0206BC44536D1D3F800C04CF0804C50
:10440000C3F800C01B6803F080430593036843F0C2
:10441000100303600068CDE9024100F01000059030
:10442000C801CDE90002CDF810A069464846FEF764
:10443000B1FEDFF878829C494046C8F80010C0E918
:1044400001B4C0E90346C8F81440C0E90647C8F8FB
:104450002040C8F82440AEE0C5F83480C8F8385091
:1044600007B0BDE8F08FDFF84882C4452ED1D3F8FD
:1044700000C04CF0004CC3F800C01B6803F00043C0
:104480000593036843F010030360006800F0100018
:1044900005908DE81600CDE9031A69464846FEF7F7
:1044A00079FEDFF80882804908F16008483140460B
:1044B000C8F80010C0E901B4C0E90346C8F81440C8
:1044C000C0E906470421C8E9084174E0DFF8E48147
:1044D000DFF8CCE14FF007090EF1040EC44534D1EA
:1044E000DEF800C04CF0100CCEF800C0DEF8003052
:1044F00003F010030593036843F0020303600068B0
:10450000CDE9024100F002000590C020CDE9000293
:10451000CDF8109069466848FEF73CFEDFF88C81C4
:10452000664908F1C0084046C8F800104FF0006125
:10453000C0E90114C0E90346C8F81440C0E90647C1
:10454000C8F82040C8F8244035E0DFF87481C4453D
:1045500039D1D3F800C04CF4003CC3F800C01B684C
:1045600003F400330593036843F008030360006815
:10457000CDE9024100F0080005906020CDE900027D
:10458000CDF8109069464F48FEF704FE4649DFF823
:10459000388130314046C8F800104FF00061C0E962
:1045A0000114C0E90346C8F81440C0E90647C8F83A
:1045B0002040C8F82440FEF747FD00283FF44CAFE8
:1045C000FDF724FB48E7DFF80481C4451CD11D68D2
:1045D00045F480251D601B6803F480230593036860
:1045E00043F0040303600068CDE9024100F00400D9
:1045F00005904FF44060CDE90002CDF81090694677
:104600003348FEF7C7FD2BE7324B9C45FBD1DEF864
:1046100000C04CF0200CCEF800C0DEF8003003F0F3
:1046200020030593036843F0400303600068CDE96D
:10463000024100F0400005904FF48440CDE90002B3
:10464000CDF810A069462448FEF7A4FDDFF8788075
:104650001A4908F1600818394046C8F80010C0E946
:1046600001B4C0E90346C8F81440C0E90647C8F8D9
:104670002040C8F82440FEF7E7FC08B1FDF7C6FA71
:10468000C5F83480002205214720C8F83850FEF7CD
:104690003DFF4720FEF72FFFE2E6000000780040D4
:1046A000403802400010024058600240EC3E0020BA
:1046B000007C0040001001400004024040640240C1
:1046C00000440040000C02400C4000200048004024
:1046D000000802400014014000180240F8B50446EA
:1046E00090F83A0020283CD1C1B3BAB394F838000E
:1046F000012836D0012084F83800A162A285002567
:10470000E563222084F83A00636B1748D863636B33
:1047100016481864636B1648D864606B13460565C9
:104720000846666B216802463046091DFEF7F6FC16
:10473000206801684168009184F83850C16841F4EC
:104740008071C1602068416941F0010141612068C8
:10475000416941F0400141610020F8BDFFE70120BF
:10476000FBE70220F9E70000EB6F00082770000864
:10477000A16F000838B5134C134900682268C2B114
:10478000884215D11E2211491148FFF7A7FF0023C7
:104790006A460E49206805F031FA0098002807D0D3
:1047A0000C494FF080500860BFF34F8FBFF36F8FFD
:1047B00038BD8842FCD11E2204490548FFF78EFF10
:1047C00038BD0000B00F002000140140641B002021
:1047D000AC3E002004ED00E070472DE9F8430446AC
:1047E00090F839001F4616460D46202850D1A5B135
:1047F0009EB194F8380001284AD0012084F838008E
:104800004FF00008C4F83C80212084F83900FEF7FE
:10481000ADFDA6848146E68426E00120BDE8F8834C
:10482000E08C401EE084A0684B46B0F5805F4FF0FE
:1048300000024FF080012046009703D002F066FD91
:10484000E8B90DE002F062FDC8B928882168C0F31C
:1048500008004860206908B16D1C05E0AD1C03E04C
:10486000216815F8010B4860E08C0028D8D14B4630
:10487000002240212046009702F048FD08B10320A5
:10488000CCE7202084F8390084F838800020C5E780
:104890000220C3E7FEE70000034802F01DFE0120EE
:1048A00004F054FDF8E700003A3D002098B03C21A8
:1048B0006846FBF73FFD20210FA8FBF73BFD204F8B
:1048C0004FF0FF396C4600234A460FA9F86A04F0FE
:1048D000F9FF01282CD1F86A04F0DEFB032801D28D
:1048E000012000E00020804604F05EFC1E200FA99D
:1048F0002318225C03F81E2C0A1812F81E2C2254CE
:10490000401C3C28F4DB0025605DA5280BD1601914
:104910000646414604F0BEFA28B97078B178401EC8
:1049200040EA012005446D1C1E2DEDDB04F05CFC0B
:104930000920FDF751F8012004F008FDC3E700004D
:10494000840F00207FB50024144800940194029441
:104950001149039401604FF48031C0E901140461EE
:1049600084610F490462C0E90A140125C460C5616D
:1049700045610463FDF7F6FE08B1FDF747F90B202A
:10498000CDE90005694602940448FDF741FE002880
:1049900001D0FDF73BF97FBD00200140403A0020E7
:1049A0000100000F0F4810B50D4901600921416059
:1049B00000214FF480328160C0E90312120142618C
:1049C0000176012242768176C17601774277FEF741
:1049D000FCF8002803D0BDE81040FDF717B910BD62
:1049E00000640040003B00200F4810B50D490160F5
:1049F0000921416000214FF480328160C0E9031237
:104A000012014261017641768176C17601770121FA
:104A10004177FEF7DAF8002803D0BDE81040FDF733
:104A2000F5B810BD00680040283B00201D4808B5BF
:104A3000016841F480010160016801F48001009186
:104A4000016841F4001101600068002200F40010C8
:104A5000009005210E20FEF759FD0E20FEF74BFDBC
:104A6000002205211020FEF751FD1020FEF743FD26
:104A7000002205211120FEF749FD1120FEF73BFD24
:104A8000002207213920FEF741FD3920FEF733FDD2
:104A9000002207213A20FEF739FDBDE808403A2000
:104AA000FEF729BD3038024010B5AEB014223649A9
:104AB0006846FBF726FC0021684603F01EFD334CD8
:104AC00031491422A060143105A8FBF71AFC00211B
:104AD00005A803F012FD2C49E060142228310AA831
:104AE000FBF70FFC00210AA803F007FD264920610F
:104AF00014223C310FA8FBF704FC00210FA803F09F
:104B0000FCFC214960611422503114A8FBF7F9FB29
:104B1000002114A803F0F1FC1B49A06114226431A8
:104B200019A8FBF7EEFB002119A803F0E6FC1649D3
:104B3000E061142278311EA8FBF7E3FB00211EA8D8
:104B400003F0DBFC1049206214228C3123A8FBF710
:104B5000D8FB002123A803F0D0FC0B49606214228B
:104B6000A03128A8FBF7CDFB002128A803F0C5FC45
:104B7000A06202F093F900221E21052004F07EFEBF
:104B8000E0622EB010BD00009CA30008840F00203E
:104B90002DE9F04F87B014216846FBF7CBFB554851
:104BA0000024016841F010010160016801F010016A
:104BB0000591016841F002010160016801F0020104
:104BC0000591016841F040010160016801F0400178
:104BD0000591016841F001010160016801F00101E6
:104BE0000591016841F008010160016801F00801C8
:104BF0000591016841F004010160016801F00401C0
:104C00000591016841F480710160016801F48071CF
:104C10000591016841F080010160016801F08001A7
:104C20000591016841F0200101600068DFF8C8903B
:104C300000F0200042F2FE15059001222946484668
:104C4000FEF78EFBDFF8B4A000223C215046FEF7B1
:104C500087FBDFF8ACB044F24007002239465846E3
:104C6000FEF77EFB4FF40068012241462548FEF71F
:104C700077FB254E4FF48070CDE9000602200290AC
:104C800069462248FEF786FA00950125CDE90154D0
:104C9000694648460394FEF77DFA3C200090CDE932
:104CA0000154694650460394FEF774FA0097CDE923
:104CB0000154694658460394FEF76CFAA802CDE900
:104CC0000006694602955846FEF764FA0420CDE9CD
:104CD0000006694602940D48FEF75CFACDF80080A4
:104CE000CDE90154694607480394FEF753FA07B02B
:104CF000BDE8F08F3038024000180240001C02402E
:104D00000014024000100240000011100004024094
:104D100010B5002207212520FEF7F8FB2520FEF71D
:104D2000EAFB002208211420FEF7F0FB1420FEF716
:104D3000E2FB002206211720FEF7E8FB1720FEF712
:104D4000DAFB002205211D20FEF7E0FB1D20FEF707
:104D5000D2FB002207212620FEF7D8FB2620FEF7F3
:104D6000CAFB002208214120FEF7D0FB4120FEF7BC
:104D7000C2FB002205215320FEF7C8FB00220721B9
:104D80005220FEF7C3FBBDE810405220FEF7B3BB34
:104D9000074910B5054808600846FEF7EEFE0028F2
:104DA00003D0BDE81040FCF731BF10BD000806502D
:104DB000103D0020104810B50E4901604FF482717B
:104DC000416000218160C1604FF400720161C0E95F
:104DD00005123022C0E90721416281620A21C162C5
:104DE000FEF7F8FE002803D0BDE81040FCF70EBF28
:104DF00010BD000000500140503B002010B58CB0A9
:104E000000240794089409941C2168460A94FBF72F
:104E100091FA1A48184901605921C0E9011440F675
:104E2000C311C0E90314FEF7A2FF08B1FCF7EEFEC0
:104E30004FF48050079007A91048FFF71AF808B1FF
:104E4000FCF7E4FE0D48FFF71CFA08B1FCF7DEFEA4
:104E5000602000904FF47A70CDE901040022694689
:104E600006480494FFF7A5F908B1FCF7CFFE034804
:104E7000FFF72CF90CB010BD00180040D43C002006
:104E800010B586B00024164800940194029403944F
:104E900004944FF08041059401605921C0E9011448
:104EA0006FF07F41C0E90314FEF761FF08B1FCF722
:104EB000ADFE4FF48050009069460948FEF7D9FFD7
:104EC00008B1FCF7A3FE049404A905480594FEF775
:104ED00026FF002801D0FCF799FE06B010BD0000A7
:104EE000A83B002010B58EB00024079408940994C4
:104EF0000A940B941C2168460C94FBF71BFA1E487D
:104F00001C49016040F28331C0E90114C721C0E9A6
:104F10000314FEF72CFF08B1FCF778FE4FF4805025
:104F2000079007A91448FEF7A4FF08B1FCF76EFE2E
:104F30001148FFF7A6F908B1FCF768FE0B940BA91E
:104F40000D480C94FEF7EBFE08B1FCF75FFE602005
:104F5000CDE9000402940422694607480494FFF74F
:104F600028F908B1FCF752FE0348FFF7AFF80EB07E
:104F700010BD000000040040E43B002010B58EB0DE
:104F800000240794089409940A940B941C21684601
:104F90000C94FBF7CFF92648244901605921C0E958
:104FA000011440F6C311C0E90314FEF7E0FE08B196
:104FB000FCF72CFE4FF48050079007A91C48FEF721
:104FC00058FF08B1FCF722FE1948FFF75AF908B15B
:104FD000FCF71CFE0B940BA915480C94FEF79FFEE2
:104FE00008B1FCF713FE6020CDE900040294002212
:104FF00069460F480494FFF7DCF808B1FCF706FE99
:10500000042269460A48FFF7D4F808B1FCF7FEFD10
:10501000082269460648FFF7CCF808B1FCF7F6FD10
:105020000348FFF753F80EB010BD00000008004021
:10503000203C002010B586B000241648009401944E
:1050400002940394049412490594016040F2833160
:10505000C0E90114611EC0E90314FEF788FE08B11F
:10506000FCF7D4FD4FF48050009069460948FEF7E4
:1050700000FF08B1FCF7CAFD049404A90548059493
:10508000FEF74DFE002801D0FCF7C0FD06B010BDB4
:10509000000C00405C3C002010B594B000240E943D
:1050A0000F941094119412941C2168461394FBF7EA
:1050B00041F91C2107A8FBF73DF928482649016062
:1050C00042F22731C0E90114C721C0E90314446149
:1050D000FEF74DFE08B1FCF799FD4FF480500E909D
:1050E0000EA91E48FEF7C5FE08B1FCF78FFD1B4850
:1050F000FFF7C7F808B1FCF789FD129412A9174809
:105100001394FEF70CFE08B1FCF780FD6020CDE99A
:1051100000040294039404940594002269460F4805
:105120000694FFF746F808B1FCF770FD0794089461
:1051300009944FF400500A94CDE90B4007A90748A1
:105140000D94FEF7BFFD08B1FCF760FD0348FEF7C4
:10515000BDFF14B010BD000000040140983C0020C9
:105160000D4810B50B4901604FF4E1314160002159
:1051700081600C22C160C0E9041281610A46C161EC
:10518000FEF772F9002803D0BDE81040FCF73EBDE1
:1051900010BD0000007800406C3D00200D4810B5A7
:1051A0000B4901604FF4E1214160002181600C2234
:1051B000C160C0E9041281610A46C161FEF754F979
:1051C000002803D0BDE81040FCF720BD10BD000052
:1051D000007C0040AC3D00200C4810B50A4901603D
:1051E0000B494160002181600C22C160C0E90412BA
:1051F00081610A46C161FEF737F9002803D0BDE896
:105200001040FCF703BD10BD00100140EC3D002034
:10521000A08601000D4810B50B4901604FF4E13143
:105220004160002181600C22C160C0E904128161EB
:105230000A46C161FEF718F9002803D0BDE8104006
:10524000FCF7E4BC10BD0000004400402C3E0020F0
:105250000D4810B50B4901604FF4E1314160002168
:1052600081600C22C160C0E9041281610A46C161FB
:10527000FEF7FAF8002803D0BDE81040FCF7C6BCE2
:1052800010BD0000004800406C3E00200D4810B5E5
:105290000B4901604FF4E1314160002181600C2233
:1052A000C160C0E9041281610A46C161FEF7DCF801
:1052B000002803D0BDE81040FCF7A8BC10BD0000DA
:1052C00000140140AC3E00200249052009684863F3
:1052D00070470000983C0020024919200968486383
:1052E00070470000983C0020FEE74FF0FF34214655
:1052F000012003F08BFEC0B2012808D103F054FF57
:1053000002F0B4FA03F070FF0820FCF765FB0120FF
:1053100004F01CF8EBE700002DE9F05F07462DEDE7
:10532000028B0E46087CFC49C206FC48FC4C4FF040
:1053300001094FF0000516D584F80B9042F6E062A3
:1053400002809FEDF80A81ED000AF74991ED000A0D
:10535000B5EEC00AF1EE10FA03D14FF4FA51018014
:1053600009E0028007E0E57241F6583202809FEDC5
:10537000EF0A81ED000A308ADFF8A4A3DFF8B0B3AA
:10538000C107B7EE008AAAF1300A14D08BF800509A
:1053900084F80F906178284631B901F0E5F80120D2
:1053A00001F0E2F884F801909BF8000002F060F947
:1053B0002570E57315E0800718D58BF8005084F848
:1053C00010902178284631B901F0CEF8012001F083
:1053D000CBF884F800909BF8000002F049F9657062
:1053E00025748AF8039084F81E9068E02570657033
:1053F000CB488AF803506279807F012A02D1227E4D
:10540000012A03D09AF8041009B358E0A8468BF893
:105410000050012804D1404601F0A6F884F81E800F
:105420009BF8001043F6982001F0A6F9C14878EEE9
:10543000400AB0F9001000EE101AB8EEC00A20EED3
:10544000800ABDEEC00A10EE101A018037E0012874
:1054500003D1002001F088F8A577E07F012802D170
:1054600001F082F8E57700214CF2503001F084F928
:10547000DFF8C08278EE400A0121B8F9000000EEA2
:10548000100AB8EEC00A20EE800ABDEEC00A10EE87
:10549000100AA8F800004CF2503001F06DF9B8F98C
:1054A000020078EE400A00EE100AB8EEC00A20EEC4
:1054B000800ABDEEC00A10EE100AA8F80200308A79
:1054C000410714D58BF8009084F81290A1784846D3
:1054D00031B901F049F8002001F046F884F8029053
:1054E0009BF8000002F0C4F8E570A57415E0000711
:1054F00018D58BF8009084F81190E178484631B9BE
:1055000001F032F8002001F02FF884F803909BF8A6
:10551000000002F0ADF8A57065748AF8049084F874
:105520001F9066E0A570E5708AF804506179012942
:1055300002D1217E012903D09AF8030000B358E07C
:105540008BF80090E17F4846012902D101F00CF868
:10555000E5779BF8001043F6982001F00DF97548A7
:1055600078EE400AB0F9021000EE101AB8EEC00A48
:1055700020EE800ABDEEC00A10EE101A418038E01D
:10558000A07F012803D1002000F0EEFFA577E07F87
:10559000012802D100F0E8FFE5774CF2503B0021F2
:1055A000584601F0E9F8DFF88C8178EE400A0121D5
:1055B000B8F9000000EE100AB8EEC00A20EE800A2A
:1055C000BDEEC00A10EE100AA8F80000584601F01F
:1055D000D3F8B8F9020078EE400A00EE100AB8EEEF
:1055E000C00A20EE800ABDEEC00A10EE100AA8F82C
:1055F00002009AF804109AF80300014338D1A07F02
:10560000012803D1002000F0AFFFA577E07F01283B
:1056100002D100F0A9FFE5774CF2503B002158463B
:1056200001F0AAF8DFF80C8178EE400A0121B8F900
:10563000000000EE100AB8EEC00A20EE800ABDEEAF
:10564000C00A10EE100AA8F80000584601F094F8BD
:10565000B8F9020078EE400A00EE100AB8EEC00A6F
:1056600020EE800ABDEEC00A10EE100AA8F8020073
:10567000308A800504D5FFF72FFE84F8139005E0EB
:10568000FFF722FE2C48E574C0F80650308A8004EB
:105690000AD5207D48B9207920B10020207184F8F6
:1056A000149002E00120F9E72575307C800602D5D0
:1056B00084F80C9000E02573307C41061F4809D522
:1056C00040F2FA510180B3EE000A80ED010A84F83D
:1056D0001C900AE02179012934D040F2D6619FED77
:1056E000180A018080ED020A2577307C00063FD53C
:1056F000DAF81C10491CCAF81C101E293ADDA17AE0
:1057000049B10021A172617931B300216171A27E9A
:10571000012A23D026E01DE0AC000020E600002096
:1057200034000020CDCC6C40480F0020CDCC4C4044
:1057300033030020D8000020581B0020EC19002063
:105740000000844240F29E7101809FED640A80ED6A
:10575000010AC9E70121D5E70121D7E711B965762B
:10576000A5762576A1716FF0C701CAF81C1001E07B
:10577000CAF81C50328A500528D5DAF82010504655
:10578000491CCAF820101E2922DD554A554B457187
:10579000417955545D54491CC9B241710829F7D368
:1057A00051494F48096888474E48FBF70BFB89F37E
:1057B0001388BFF34F8F4D4801684D4A01F4E061F3
:1057C00011430160BFF34F8F00BFFDE7CAF82050BF
:1057D000D0050AD5A07D70B984F81690607F10B10D
:1057E0000020607707E00120FBE743489FED410A76
:1057F000A57580ED000A308AC00402D584F81790A0
:1058000000E0E575B7F900006FF02A0100EE100A1C
:10581000B8EEC00A8AED0A0AB7F90000884201DC36
:10582000398003E02B2801DB2B203880B7F90200F8
:105830006FF07701884201DC798003E0782801DB92
:1058400078207880617F2D4879B12D4991ED000A4B
:10585000B5EEC00AF1EE10FA23D12A4991ED000A03
:10586000B5EEC00AF1EE10FA1BD1B7F9021090EDB7
:10587000000A00EE901A9FED241AF8EEE00A00EEFE
:10588000C10A9FED221A80ED000AB7F9001090EDD1
:10589000010A00EE901AF8EEE00A00EE810A80EDAF
:1058A000010A90ED000A1A4A10EE101A914202D332
:1058B000BAEE0C0A08E090ED000A164A10EE101A33
:1058C000914203DBB3EE090A80ED000A3846BDECD5
:1058D000028BBDE8F05F00F01FB800000000D4416B
:1058E0006C0F0020740F00205C0F00200CED00E016
:1058F0000400FA05000000003C0E0020D81900202A
:10590000400E0020440E00208FC2753D0AD7A33DF3
:10591000000060C10000C8412DE9F047314C01276B
:10592000DFF8C490617805464FF40058002631B185
:105930002E48012900880FD0022934D124E0267096
:10594000E87938B9687A012804D1FCF729FA267079
:105950006770668100220EE02670697A01290FD0F7
:10596000A4F80A60B4F90A104B2919DCFCF723FAF1
:1059700002206070012241464846FDF7F1FC12E02A
:105980006189491C6181EDE7FCF715FA2770687A97
:1059900001280DD0A4F80A60B4F90A004B2802DDF2
:1059A0006670FCF7FDF90F4FA879303720B10CE095
:1059B0006089401C6081EFE7287A012805D1607872
:1059C000022802D1387900F079FE02F021FB687AD2
:1059D000E871387F012803D0287AA871BDE8F087E4
:1059E000AE71FBE70400002000180240EC19002013
:1059F00070470907090E002806DA00F00F0000F1D1
:105A0000E02080F8141D704700F1E02080F80014B9
:105A1000704700002D489FED2C0A80ED230A80ED91
:105A2000240A80ED250AD43080ED230A80ED240A73
:105A300080ED250AD43080ED230A80ED240A80ED24
:105A4000250AD43080ED230A80ED240A80ED250A52
:105A500000F5D47080ED230A80ED240A80ED250A3C
:105A6000D43880ED230A80ED240A80ED250A00F564
:105A7000D47080ED250A80ED240A80ED230AD4300D
:105A800080ED250A80ED240A80ED230AD43080EDD4
:105A9000250A80ED240A80ED230AD43080ED250A02
:105AA00080ED240A80ED230AD43080ED250A80EDB4
:105AB000240A80ED230AD43080ED040A80ED050A23
:105AC00080ED060A70470000000000003C10002036
:105AD00010B504462DED028B82B0B0EE608AF0EE78
