:020000040800F2
:1000000080170020990100084B250008972200085E
:10001000492500086B070008A92C00080000000013
:1000200000000000000000000000000001010008C6
:100030002F0900080000000045010008692600089B
:10004000B3010008B3010008B3010008B3010008C0
:10005000B3010008B3010008B3010008B3010008B0
:10006000B3010008B3010008B3010008B3010008A0
:10007000B3010008F9080008B3010008B301000843
:10008000B3010008B3010008B3010008B301000880
:10009000B3010008B3010008B3010008B301000870
:1000A000B3010008B3010008B3010008B301000860
:1000B000B30100083D270008B3010008B3010008A0
:1000C000B3010008B3010008B3010008B301000840
:1000D000B30100080D2C0008B3010008112C000822
:1000E000B3010008B3010008B3010008DFF80CD029
:1000F00000F0FAF900480047E32C000880170020C0
:10010000224B19680868B0E8F00F80F30988BFF344
:100110006F8F4FF0000080F311884EF00D0E704786
:100120000000000006480068006880F3088862B696
:1001300061B6BFF34F8FBFF36F8F00DF00BF00BF0B
:1001400008ED00E0EFF30980BFF36F8F0F4B1A68E3
:1001500020E9F00F106008B54FF0500080F31188CF
:10016000BFF34F8FBFF36F8F03F0BEF94FF0000066
:1001700080F31188BDE8084019680868B0E8F00FFE
:1001800080F30988BFF36F8F704700BF50000020D5
:10019000EFF3058070470000064880470648004797
:1001A000FEE7FEE7FEE7FEE7FEE7FEE7FEE7FEE727
:1001B000FEE7FEE7F5260008ED00000840EA01032F
:1001C0009B0703D009E008C9121F08C0042AFAD20D
:1001D00003E011F8013B00F8013B521EF9D27047D1
:1001E000D2B201E000F8012B491EFBD27047002279
:1001F000F6E710B513460A4604461946FFF7F0FF26
:10020000204610BDF0B480EA0102D40F4200B2EBE8
:10021000410F02D20246084611464A0042D0C30DA1
:10022000DDB2C1F3C752AD1A202D35DAC1F3160184
:1002300041F4000204B15242C5F1200602FA06F16F
:100240002A411044B3EBD05F23D0C4B1012DA0EB01
:10025000C35009DCF0BC4FF0004202EAC352DBB2EB
:1002600000F5000000F011B9400000F1807000EBD3
:10027000C350A0F1807040EAD170490009E04908FC
:1002800041EAC071A0EBC35000F50000400800EB4C
:10029000C350F0BC00F0F0B86142012202EB410112
:1002A000001BF6E7F0BC704781F00041AAE780F040
:1002B0000040A7E780EA010210B502F000434000C9
:1002C00022D04A001FD0010E01EB1261C0F356008C
:1002D000C2F3560240F4000042F40002A0FB0220E8
:1002E00000047F39140400D0401C50EA124001D4AD
:1002F0004000491EC2B20C0604EBD010401C40085E
:10030000802A02D003E0002010BD20F00100002967
:1003100000DA0020184310BD30B480EA010202F078
:10032000004530F0004221F0004013D090B1C30DE1
:10033000D40DC2F31601C0F31600E41A41F4000113
:1003400040F400027D34914201D3641C00E0490076
:10035000002C02DA30BC002070474FF4000000236C
:10036000914201D3891A034340084FEA4101F7D172
:1003700051B1914202D14FF0004105E002D24FF05D
:10038000010101E06FF0010103EBC450284430BCCF
:1003900000F072B8420005D0C0F3C75252429142F9
:1003A00001DC0020704700EBC1507047C10F80EAAC
:1003B000E0700844CA079623002100F066B896232F
:1003C0000022114600F061B820F00040C10DC0F3DA
:1003D000160040F400007F2901DA002070479629BA
:1003E00003DCC1F19601C8407047963988407047D8
:1003F00000F0004230F000400AD0C10D01F56071FC
:10040000C0F3160042EA0151C20840071143704789
:10041000002001467047000030B5041E71F1000451
:1004200004DB4FF00044404264EB0101141E73F101
:10043000000405DB1C464FF00043524263EB04030B
:100440008B4208BF824230BD30B5041E71F10004FA
:1004500004DB4FF00044404264EB0101141E73F1D1
:10046000000405DB1C464FF00043524263EB0403DB
:10047000994208BF904230BD0029A8BF7047401C78
:10048000490008BF20F00100704710B4B0FA80FCAA
:1004900000FA0CF050EA010404BF10BC704749B1E7
:1004A000CCF1200421FA04F411FA0CF118BF012157
:1004B00021430843A3EB0C01CB1D4FEA00614FEA37
:1004C000102042BF002010BC704700EBC350104406
:1004D0000029A4BF10BC7047401C490008BF20F091
:1004E000010010BC70470000064C074D06E0E068B4
:1004F00040F0010394E8070098471034AC42F6D36B
:10050000FFF7F8FDD4370008F437000870B504464B
:1005100000688168C943C9071CD1816821F00101C5
:10052000816000F077FE05460FE000BF00F072FE2C
:10053000401B022809D9A06A40F01000A062E06ABE
:1005400040F00100E062012070BD20688068C04377
:10055000C007EBD0002070BDF8B500260446009619
:1005600000688168C943C90728D0816841F001014A
:100570008160134813490068B0FBF1F000E0401EB1
:1005800000900028FBD100F045FE054611E000BFB9
:1005900000F040FE401B02280BD9A06A40F010007A
:1005A000A062E06A40F00100E06284F8246001206B
:1005B000F8BD20688068C043C007E9D10020F8BDBD
:1005C0004C00002040420F008CB00020ADF8280005
:1005D0004A4C444FDFF81091DFF810A1DFF810B15A
:1005E000DFF81081444D2646002000F0A3F90146B3
:1005F000684600F091F8FFF7E2FE3946FFF78CFEFF
:1006000020F000404946FFF755FE6060022002F0EE
:10061000C3FE042000F08EF9014605A800F07CF826
:10062000FFF7CDFE3946FFF777FE5146FFF73CFE58
:1006300020F000405946FFF76FFE3149A060FFF7F8
:1006400039FEE060022002F0A7FE6068404501DA52
:10065000002206E027492B4AC943014491420ED2A9
:1006600001224FF48041284600F0CEFD5FF00002E9
:100670004FF40051284600F0C7FD002215E0224942
:100680004FF001020844214988424FF48041284636
:1006900003D200F0B9FD0122EAE700F0B5FD012226
:1006A0005103284600F0B0FD01224FF48051284646
:1006B00000F0AAFD16496068FFF7FCFDFFF784FE15
:1006C000ADF82800BDF82800000A7070BDF82800B9
:1006D000B0700A23032209490E4801F07FFD00286B
:1006E000F7D181E7C9269B44A470F54066661640A1
:1006F000CDCCCC3D0000C040000C014004000020E7
:100700000000C041FFFF7F00FFFFBFBEFFFF4F00A3
:1007100000007A44CC0100202DE9F043028A428295
:10072000B0F80E80A0F81080B0F80CC0A0F80EC091
:100730004789878106894681C58805818488C48068
:100740004388914683800288428001808818191965
:1007500008442844304438446044404448440A2112
:10076000B0FBF1F080B2BDE8F083FEE72DE9F04781
:10077000DFF8D0803448DFF8D49098F800100025D6
:10078000334C0768012907D1324833490068884251
:1007900002DA3249384638E0B4F902603C2E3CDADD
:1007A000B4F90400372838DA3046FFF7FFFD394640
:1007B000FFF77DFD07462061C6F14B00FFF7F6FD10
:1007C00060613846FFF714FE21F000410022244BFF
:1007D000FFF722FE0CD32069FFF70AFE21F000414B
:1007E000204A214BFFF730FE02D32069484500D351
:1007F00025611E486169814200DD60611C492069F4
:10080000884201DBA06806E0616901F0AFFEA168E3
:10081000FFF7F8FCA060484500D3A56098F80000F9
:10082000012809D1B4F90200322805DD1148A16878
:1008300004E0A060BDE8F0870F48A1688142F8DCC1
:10084000F8E7000000000020100000200000808079
:1008500024000020080000200000BC4100008C4261
:1008600000001440CDCCCCCCCCCC3740000096421C
:100870000000B841000048420000164370B514481B
:10088000144D154E0168154CA94201DA144803E0D5
:100890001448814202DD1448E0600CE0A068FFF7D4
:1008A0003BFDE060A84201DDE56004E00F498842BD
:1008B00001DA002009E00E49E068FFF7FBFC0D4972
:1008C000FFF7F2FCFFF780FD80B22080306070BD42
:1008D000080000200000A0403C0800402400002048
:1008E000000040400000B841CDCC4C3ECDCCCC3DCA
:1008F000122C524402BC7B41014800F097BA000020
:100900000C02002030B590F840500124AC40C56B7B
:100910006C60046863604368102B036803D09960BF
:100920000068C26030BD9A600068C16030BD704729
:10093000704700000EB56946009001200190072025
:100940000290074800F00EF8054800F0F7F90A2178
:10095000034800F05BF9024800F082F880B20EBD57
:10096000CC000020F8B50024009490F824202546FF
:10097000012A12D0012280F824204A681F23072A66
:100980000DD20668776B521E02EB820293409F43A2
:100990000B6893401F43776319E00220F8BD066897
:1009A0000D2A0AD2376BD21F02EB820293409F437B
:1009B0000B6893401F43376309E0F76A0D3A02EB77
:1009C000820293409F430B6893401F43F7620A687B
:1009D000072306680A2A0AD3F7680A3A02EB42029A
:1009E00093409F438B6893401F43F76008E037694B
:1009F00002EB420293409F438B6893401F43376151
:100A00000A68102A01D0112A20D1124B02689A429A
:100A100017D193681B0219D4936843F400039360C1
:100A20000968102912D10C490C4A0968B1FBF2F18E
:100A300001EB8101490000E0491E00910029FBD132
:100A400004E0816A41F020018162012480F8245091
:100A50002046F8BD002401404C00002040420F0019
:100A60000068C06C704700002DE9F0414FF00007AE
:100A700004003D467ED0A06A002628B9E66284F8CC
:100A80002460204600F07EF82046FFF73FFDA16A73
:100A9000C90600D420B1A06A40F01000A06269E04D
:100AA000A16A21F4885141F00201A1626268E16902
:100AB000E3680A4347EA43010A43A1684FF4807799
:100AC000B94209D0012907D05FF00001D4F814C061
:100AD000BCF1010F02D00AE03946F7E7F3B1A36A8F
:100AE00043F02003A362E36A43F00103E362236857
:100AF000D3F804C02CF4694C4CEA010CC3F804C0D0
:100B000021688B68DFF870C003EA0C0313438B6025
:100B1000A168B9420BD0012909D00CE0DFF85CC014
:100B2000A3690CEB43330B4343F40061DFE7218AF5
:100B30000D05A5F580152168CB6A23F470032B43BE
:100B4000CB62216889680E4B1940914208D1E66258
:100B5000A16A21F0020141F00101A162BDE8F0812A
:100B6000A06A20F0020040F01000A062E06A40F0AD
:100B70000100E0620120F1E7FDF7E1FF00E0FFFF87
:100B8000FE0E1FFF10B586B0002100910191029169
:100B900003911A4C03681A4903221A48A34211D13F
:100BA0008B6943F400738B618B6903F400730493C6
:100BB0008B6943F004038B61896901F0040104919E
:100BC000012113E0104CA34215D18B6943F48063DB
:100BD0008B618B6903F4806304938B6943F0040396
:100BE0008B61896901F0040104913021CDE9001283
:100BF000694600F02BFA06B010BD00000024014049
:100C00000010024000080140002801402DE9F8438F
:100C100000260D460446009600F0FCFA8046206847
:100C20008168C90508D5A06A40F02000A06284F858
:100C300024600120BDE8F8834168C90503D4C06A77
:100C400010F4700F26D0022000F0AAFB3849096882
:100C5000B1FBF0F72068036936490B424FEA6101A6
:100C60004FEAA1121BD1C3684FEA611C13EA0C0FB3
:100C700015D103690B4221D1C06810421ED1142046
:100C80001FE0681C06D045B300F0C4FAA0EB0800D2
:100C9000A84222D8206800688007F2D52AE00369BC
:100CA0000B4202D1C168114206D0026922490A42B0
:100CB00006D1C068084203D1542002E0292000E098
:100CC000FC204743009813E0681C0ED02DB100F0C3
:100CD000A1FAA0EB0800A84207D9A06A40F00400DE
:100CE000A06284F824600320A4E70098401C0090D0
:100CF000B842E9D321686FF012000860A06A40F49E
:100D00000070A06220688068C0F3424007280CD1C0
:100D1000E06850B9A06A20F48070A062A06AC004A4
:100D200003D4A06A40F00100A062002082E7000026
:100D30004C000020244992244992240070B50446B6
:100D400090F8240001280DD0012084F824002046CA
:100D5000FFF702FC02004FF0000005D084F82400E9
:100D6000104670BD022070BDA16A40F20123994374
:100D700041F48071A1621F4D23681F49AB4218D115
:100D80000E6816F4702F14D0A66A46F48016A66278
:100D90000E68760505D5A66A26F4005646F48056F8
:100DA000A662A66AF6040AD5E66A26F00606E66298
:100DB00006E0A66A26F48016A6625E68E9E7E062AD
:100DC00084F824006FF00200186020688368C3F381
:100DD0004243072B05D1A84208D1096811F4702FAE
:100DE00004D0816841F480118160B9E7816841F4E1
:100DF000A001F9E7002801400424014001680A68C5
:100E000022F00E020A6001680A6822F001020A60FC
:100E100090F84020C36B012101FA02F25A6080F879
:100E20002110002180F82010084670472DE9F05F5E
:100E3000C16B0C6801680B68D0F840C0042202FA4C
:100E40000CF2494DDFF824A1494E4A4FDFF828B192
:100E5000DFF828E122422CD05A072AD50A689206E8
:100E600003D40A6822F004020A600168A94201D191
:100E7000042219E0514501D1402215E0B14202D1CE
:100E80004FF4806210E0B94202D14FF480420BE08F
:100E9000594502D14FF4802206E0714502D14FF44A
:100EA000800201E04FF080622F4908394A60C16A30
:100EB0003BE04FF0020808FA0CF818EA040F4FF074
:100EC00000094FF0010235D05FEA837832D50B6814
:100ED0009B0605D40B6823F00A030B6080F82120E1
:100EE0000168A94201D1022219E0514501D1202215
:100EF00015E0B14202D14FF4007210E0B94202D1C4
:100F00004FF400520BE0594502D14FF4003206E095
:100F1000714502D14FF4001201E04FF00072124906
:100F200008394A6080F82090816A00291AD0BDE80B
:100F3000F05F0847082505FA0CF5254212D01B077B
:100F400010D50B6823F00E030B6090F84010C36BB4
:100F500002FA01F15960826380F8212080F8209024
:100F6000016BE2E7BDE8F09F080002401C00024070
:100F70003000024044000240580002406C00024031
:100F800030B528B308C8134914221944B1FBF2F153
:100F90008900C16310498163022141771A6843F6D1
:100FA000F0718A43D0E900142143D0E902452C4373
:100FB0002143046921434469214384692143114346
:100FC000196000214163012242770177084630BD54
:100FD000012030BDF8FFFDBF0000024070B504469F
:100FE00090F82000002501280CD0012084F8200072
:100FF00094F821600020012E06D084F820000225FC
:10100000284670BD022070BD022684F82160A063CE
:101010002068066826F0010606602046FFF772FC8D
:10102000E06A00282068016802D041F00E0106E065
:1010300021F0040101602068016841F00A010160AB
:101040002068016841F001010160D9E72DE9F84FFE
:10105000DFF890A100220AF1040B144601274FF09B
:101060000F090BF1040E00BF0B6807FA04F52B40C3
:10107000AB4274D1DFF870C14E68A6EB0C08664530
:101080002BD00DDC032E34D005DC36B3012E19D065
:10109000022E2FD11BE0112E16D0122E2AD119E0CC
:1010A000B8F5881F19D006DCB8F5803F15D0B8F523
:1010B000801F1FD111E0B8F5001F0ED0B8F5041F36
:1010C00018D10AE0CA6815E0CA68121D12E0CA68A1
:1010D00008320FE0CA680C320CE08A682AB1012A93
:1010E0004FF0080203D0456104E0042202E00561EC
:1010F00000E00022FF2B01D8064601E000F10406C3
:101100004FEA840501D9A5F12005D6F800C009FAF7
:1011100005F82CEA080C02FA05F54CEA050CC6F8AD
:1011200000C04D68ED0057D5304DAE6946F0010660
:10113000AE61AD6924F0030605F0010500952C4D64
:1011400006EB050CDCF80850A6074FEA167809FAFA
:1011500008F6B543274EB04202D1002610E03BE02E
:10116000254EB04201D101260AE0244EB04201D101
:10117000022605E0224EB04201D1032600E00426FB
:1011800006FA08F62E43CCF808604D68DAF80060DD
:10119000ED03554601D51E4300E09E432E604D6889
:1011A000DBF80060AD035D4601D51E4300E09E43C1
:1011B0002E604D68DEF80060ED02754601D51E43D5
:1011C00000E09E432E604D68AD020E4D2E6801D5A5
:1011D0001E4300E09E432E60641C102CFFF444AFBD
:1011E000BDE8F88F0004014000001110001002401B
:1011F0000000014000080140000C014000100140C7
:10120000001401400C0401400AB101617047090457
:10121000FBE70000014880687047000040000020A4
:1012200002488168027811448160704740000020C4
:10123000074810B5016841F010010160032000F07B
:101240009DF8002000F006F800F03EF8002010BDE8
:101250000020024000B5014687B000221D2000F0AA
:101260006DF81D2000F05FF81348C16941F00201DC
:10127000C161C06905A900F002000690684600F04F
:101280001FFA00F03DFA0D494000B0FBF1F10D48A6
:101290000B4A491E0260416040F2E7320021C0E97A
:1012A0000321816000F02EFC10B1012007B000BDC9
:1012B000044800F057FCF9E70010024040420F00DC
:1012C00000040040500200200F4808B5816941F039
:1012D00001018161816901F001010091C16941F061
:1012E0008051C161C069002200F0805000900F2140
:1012F000901E00F023F80548416821F0E06141F0BC
:101300000071416008BD0000001002400000014073
:1013100000F01F02012191404009800000F1E0200F
:10132000C0F88011704700F01F0201219140400970
:10133000800000F1E020C0F800117047F0B40E4BBF
:101340001B680C46C3F30223C3F10705042D00D923
:101350000425191D072901D2002300E0DB1E012608
:1013600006FA05F1491E214099409E40761E16401E
:101370003143F0BC01F0EAB80CED00E0064900F0A2
:10138000070208684FF6FF03184040EA0220034AAC
:1013900010430860704700000CED00E00000FA0503
:1013A00010B529A401461DCC86B08DE81D002AA0E9
:1013B0002A4C006804900020012923D002293AD049
:1013C00010291DD161682268D20119D5C1F3834269
:1013D000C9031DF8020009D5616804AAC1F34041A0
:1013E000515C1F4AB2FBF1F1484301E01D494843FB
:1013F0006168490204D440005FF00301B0FBF1F0E2
:1014000006B010BD226AC2F30121012903D192075F
:1014100001D5C803F4E7022905D1626A920702D513
:1014200049F64040ECE70329EAD121688903E7D572
:101430004FF22440E4E700F073F96168C1F38131B1
:10144000491C4900DAE70000020304050607080901
:101450000A0B0C0D0E0F10100102000000100240CC
:1014600000127A0000093D002DE9F8430546007896
:10147000354CC00754D0E0690026C00008D4E069AC
:1014800040F08050E061E069012600F0805000905B
:101490002E480168C90512D40168804641F4807164
:1014A0000160FFF7B7FE074605E000BFFFF7B2FE99
:1014B000C01B642823D8D8F80000C005F6D5206AE0
:1014C00010F4407021D0A98801F4407181421CD0F1
:1014D000206A1F49012220F440700A6000220A603D
:1014E0002062C00711D0FFF795FE074641F2883809
:1014F00008E000BFFFF78EFEC11B414502D9032063
:10150000BDE8F883206A8007F4D5206A696820F472
:101510004070084320621EB1E06920F08050E06115
:101520002878800705D56068A96820F44040084302
:1015300060602878C00605D56068E96820F48000FE
:10154000084360600020DBE70010024000700040AC
:10155000400442422DE9F047DFF8548105460E462B
:10156000D8F8000000F00700B0420CD2D8F8001004
:1015700021F007013143C8F80010D8F8000000F04E
:101580000700B0426FD128684A4C810712D5400746
:1015900003D5606840F4E06060602878000703D5F8
:1015A000606840F4605060606068A96820F0F000F6
:1015B000084360602878C00744D06868012816D0C6
:1015C0002168022816D0890700294CDA616821F0C9
:1015D000030101436160FFF71DFE6968074641F2A0
:1015E000883001290ED00229814618D026E02168D2
:1015F0008903E9E78901E7E7FFF70CFEC11B4945CD
:1016000001D918E081466068C0F381000128F3D158
:1016100018E000BFFFF7FEFDC11B49450BD860680D
:10162000C0F381000228F5D10CE000BFFFF7F2FD06
:10163000C11B494502D90320BDE8F087606810F05E
:101640000C0FF3D1D8F80010404601F00701B14269
:101650000BD9016821F0070131430160006800F0F7
:101660000700B04201D00120E6E72878400705D501
:101670006068E96820F4E06008436060287800074B
:1016800006D56068296920F4605040EAC1006060B6
:1016900000F056F86168084AC1F30311515CC84074
:1016A000064908600020FFF7D5FD0020C4E70000D0
:1016B0000020024000100240B03700084C0000201B
:1016C0000F2202600C4A536803F00303436053681F
:1016D00003F0F0038360536803F4E063C36052686F
:1016E0004FF4E06303EAD20202610448006800F0AC
:1016F0000700086070470000001002400020024010
:101700000448054900684968044AC1F30221515C54
:10171000C84070474C00002000100240C03700084D
:101720000448054900684968044AC1F3C221515C74
:10173000C84070474C00002000100240C03700082D
:1017400012A185B00FC98DE80F0014A0144A0068DB
:1017500004905168134801F00C03042B10D0082B9F
:101760000ED1C1F38343C9031DF803000AD55168A4
:1017700004AAC1F34041515C0A4A5043B0FBF1F066
:1017800005B0704708494843FAE700000203040522
:10179000060708090A0B0C0D0E0F101001020000BD
:1017A0000010024000127A0000093D002DE9F84FB8
:1017B00004460078B94DC00748D06868C0F381007E
:1017C000012807D06868C0F38100022809D1686841
:1017D000C00306D52868800338D5606800286FD01C
:1017E00034E06068B0F5803F0BD010B1B0F5A02FA9
:1017F00011D0286820F480302860286820F48020E8
:1018000002E0286840F480302860606888B1FFF703
:1018100001FD064609E0286840F480202860F0E7D2
:10182000FFF7F8FC801B642875D828688003F7D57B
:101830000CE0FFF7EFFC064605E000BFFFF7EAFC0F
:10184000801B6428F0D828688003F7D42078944E51
:1018500080074FF001094FF000083BD5686810F091
:101860000C0F07D06868C0F38100022809D16868AE
:10187000C00306D42868800714D5206901281FD129
:1018800010E02069B0B1C6F80090FFF7C3FC07462E
:1018900005E000BFFFF7BEFCC01B0228C4D82868C3
:1018A0008007F7D52868616920F0F80040EAC10098
:1018B00028600FE0C6F80080FFF7ACFC074606E0A2
:1018C000E9E000BFFFF7A6FCC01B022823D8286868
:1018D0008007F7D4207800072CD57248A169D9B1C8
:1018E000C0F80090FFF796FC074604E0FFF792FC73
:1018F000C01B02280FD8686A8007F7D56A484FF4E2
:10190000FA510068B0FBF1F0009000BF0098411E52
:101910000091FAD20EE080E0C0F80080FFF77AFC78
:10192000074604E0FFF776FCC01B022875D8686AFA
:101930008007F7D42078400760D5E8690027C00009
:1019400008D4E86940F08050E861E869012700F0B8
:101950008050009055480168C90513D4016883463A
:1019600041F480710160FFF755FC824606E000BF3C
:10197000FFF750FCA0EB0A0064284ED8DBF800000B
:10198000C005F5D5E06801280AD008B1052813D0B4
:10199000286A20F001002862286A20F0040002E092
:1019A000286A40F001002862E06841F2883B98B163
:1019B000FFF730FC82460BE0286A40F00400286202
:1019C000EEE700BFFFF726FCA0EB0A0159455AD805
:1019D000286A8007F6D50CE0FFF71CFC824605E07C
:1019E000FFF718FCA0EB0A0159454CD8286A80077C
:1019F000F6D41FB1E86920F08050E861E06988B34F
:101A00006968C1F38101022945D00228C6F86080C7
:101A100004D0FFF7FFFB044638E034E0FFF7FAFBA1
:101A2000074604E0FFF7F6FBC01B02282BD8286806
:101A30008001F7D4206AB0F5803F05D16868A168BD
:101A400020F4003008436860D4E90801084369685D
:101A500021F4741108436860C6F86090FFF7DAFB60
:101A6000044606E015E000BFFFF7D4FB001B022888
:101A700009D828688001F7D50BE000BFFFF7CAFB43
:101A8000001B022802D90320BDE8F88F28688001D6
:101A9000F4D40020F8E70120F6E70000001002402F
:101AA00000004242800442424C000020007000408E
:101AB0007047704730B590F83C20012A20D00122B1
:101AC00080F83C20022380F83D3003685C6824F0F5
:101AD00070045C6003685C680D682C435C6003689C
:101AE0009C6824F080049C6003689C6849680C43EF
:101AF0009C6080F83D20002180F83C10084630BDF5
:101B0000022030BD10B5040003D094F83D0010B1A0
:101B100007E0012010BD002084F83C00204600F0C2
:101B20000DF8022084F83D00211D206800F00CFE15
:101B3000012084F83D00002010BD000008B50068B9
:101B40000649884208D10648C16941F00401C161D3
:101B5000C06900F00400009008BD000000080040CB
:101B6000001002400168CA6842F00102CA600068C1
:101B7000016841F0010101600020704770B5044622
:101B800090F83C00012817D0012584F83C50022031
:101B900084F83D002068826822F0770222F47F42B8
:101BA00082600868502837D00DDC202859D005DC29
:101BB00088B3102841D151E0022070BD302853D0A5
:101BC00040283AD13FE060282ED070280BD0B0F5E5
:101BD000805F03D0B0F5005F2FD110E020688168EE
:101BE00021F0070115E0CB68D1E90121206800F060
:101BF000ECFD2168886840F0770088601DE0CB68C4
:101C0000D1E90121206800F0E0FD2068816841F4FD
:101C10008041816011E01EE0CA684968206800F0D8
:101C200089FE5021206806E0CA684968206800F0F3
:101C300092FE6021206800F0D2FD84F83D50002023
:101C400084F83C0070BDCA684968206800F072FEE4
:101C500040212068EFE700212068ECE71021206890
:101C6000E9E720212068E6E730212068E3E77047B4
:101C700070B50446006801694FF00005C943890743
:101C800015D4C168C943890711D4E91E0161012037
:101C90002077206880698007204602D0FFF7E7FFA1
:101CA00004E000F0BFF8204600F041F925772068F5
:101CB0000169C943490717D4C168C943490713D407
:101CC0006FF004010161022020772068806910F420
:101CD000407F204602D0FFF7CAFF04E000F0A2F8E0
:101CE000204600F024F9257720680169C9430907D7
:101CF00016D4C168C943090712D46FF00801016105
:101D0000042020772068C0698007204602D0FFF7B2
:101D1000AEFF04E000F086F8204600F008F92577D1
:101D200020680169C943C90617D4C168C943C906F7
:101D300013D46FF010010161082020772068C0697A
:101D400010F4407F204602D0FFF791FF04E000F03E
:101D500069F8204600F0EBF8257720680169C9434F
:101D6000C90708D1C168C943C90704D1891E0161E7
:101D7000204600F0F5F820680169C943090609D436
:101D8000C168C943090605D46FF08001016120468E
:101D9000FFF78EFE20680169C943490609D4C1686E
:101DA000C943490605D46FF040010161204600F0A7
:101DB000E1F820680169C94389060BD4C168C943A9
:101DC000890607D46FF0200101612046BDE870400C
:101DD000FFF76FBE70BD000000B585B00021009117
:101DE00001910291039100680B49884212D10B487E
:101DF000816941F0080181618069694600F008004D
:101E000004904FF4807000900220019003900448E9
:101E1000FFF71CF905B000BD0008004000100240AB
:101E2000000C0140704770B5044690F83C000D4628
:101E300001280DD0012684F83C60022084F83D0082
:101E400042B1042A18D0082A2AD00C2A4DD139E0F0
:101E5000022070BD206800F0CBFC2068816941F051
:101E6000080181612068816921F004018161206895
:101E700081692A69114311E0206800F0E1FC2068C3
:101E8000816941F4006181612068816921F4806188
:101E90008161206881692A6941EA0221816124E027
:101EA000206800F0F9FC2068C16941F00801C161B7
:101EB0002068C16921F00401C1612068C1692A69F3
:101EC000114311E0206800F013FD2068C16941F45E
:101ED0000061C1612068C16921F48061C16120682D
:101EE000C1692A6941EA0221C16184F83D6000208C
:101EF00084F83C0070BD10B5040003D094F83D0098
:101F000010B107E0012010BD002084F83C002046FD
:101F100000F00CF8022084F83D00211D206800F03C
:101F200013FC012084F83D00002010BD704770476D
:101F300010B504460068012200F03CFC0749206807
:101F4000884203D1416C41F400414164206801683A
:101F500041F001010160002010BD0000002C014093
:101F600000680349884201D1FFF75AB97047000061
:101F700000040040704710B504460068416994F8B9
:101F80003920C1F3C011212A0BD151B1416921F08F
:101F900080014161206B08B1FEF730FF204600F060
:101FA00042FD2068416994F83A20C1F38011222A49
:101FB0000BD151B1416921F040014161606B08B121
:101FC000FEF71CFF204600F020FD002010BD7047EA
:101FD00070B5040004D094F83900002510B106E073
:101FE000012070BD84F83850204600F023F82420EA
:101FF00084F839002068C16821F40051C16020468E
:1020000000F01AFD2068016921F490410161206807
:10201000416921F02A0141612068C16841F4005101
:10202000C160E563202084F8390084F83A0000207C
:1020300070BD0000F0B585B00024009401940294B6
:10204000039406460368374F0220374903224502AE
:10205000BB4226D18B6943F480438B618B6903F4C7
:10206000804304938B6943F004038B6189692F4E8D
:1020700001F0040104910102CDE9001003926946C8
:102080003046FEF7E3FFCDE900546946304602943E
:10209000FEF7DCFF002205212520FFF74FF9252060
:1020A0003BE0234FBB423AD1CB6943F48023CB6161
:1020B000CB6903F4802304938B6943F008038B619D
:1020C000896901F00801CDE90321CDE90050194DDE
:1020D00069462846FEF7BAFFE814CDE900046946D0
:1020E00028460294FEF7B2FF144D1348C5E90004D8
:1020F0008020C5E902402C616C61AC612846EC612E
:10210000FEF73EFF08B1FEF713FC756300220521C0
:1021100027206E62FFF712F92720FFF704F905B0B8
:10212000F0BD0000003801400010024000080140EE
:1021300000480040000C0140300002400C0200202A
:10214000F8B5044690F83A0020283CD1C1B3BAB3A0
:1021500094F83800012836D0012084F83800A162B4
:10216000A2850025E563222084F83A00636B1748B6
:102170009862636B1648D862636B16481863606B8D
:10218000134645630846666B216802463046091DC2
:10219000FEF724FF206801684168009184F83850F8
:1021A000C16841F48071C1602068416941F001015A
:1021B00041612068416941F0400141610020F8BD62
:1021C000FFE70120FBE70220F9E70000C52900082E
:1021D000012A00087B290008704770472DE9F84361
:1021E000044690F839001F4616460D46202850D167
:1021F000A5B19EB194F8380001284AD0012084F896
:1022000038004FF00008C4F83C80212084F83900E1
:10221000FFF700F8A6848146E68426E00120BDE8A9
:10222000F883E08C401EE084A0684B46B0F5805FE8
:102230004FF000024FF080012046009703D000F0DD
:10224000B3FCE8B90DE000F0AFFCC8B928882168FC
:10225000C0F308004860206908B16D1C05E0AD1CA2
:1022600003E0216815F8010B4860E08C0028D8D104
:102270004B46002240212046009700F095FC08B113
:102280000320CCE7202084F8390084F8388000202F
:10229000C5E70220C3E7FEE73EB5002410480094DE
:1022A000019402948460C4600C494461016001257A
:1022B00005614FF460214460C161FEF7D5FB08B1B0
:1022C000FEF736FBCDE90045694605480294FEF766
:1022D00049FB002801D0FEF72BFB3EBD0024014046
:1022E000CC0000203EB500241148009401940294D3
:1022F0008460C4600D4944610160012505614FF4AB
:1023000060214460C161FEF7AFFB08B1FEF710FB2E
:102310000420CDE90005694602940548FEF722FB3A
:10232000002801D0FEF704FB3EBD0000002801405C
:10233000FC000020094808B5416941F001014161F4
:102340004069002200F00100009005210D20FEF7F9
:10235000F5FFBDE808400D20FEF7E5BF0010024084
:1023600000B585B0142206496846FDF727FF002115
:10237000684600F0DFFC0349086005B000BD0000BE
:102380009C3700083C0000202DE9F04385B0002474
:1023900028480094019402940394816941F010014B
:1023A0008161816901F010010491816941F020018E
:1023B0008161816901F020010491816941F004018A
:1023C0008161816901F004010491816941F0080192
:1023D00081618069DFF8608000F0080001220490CC
:1023E00051034046FEF710FF00224FF48041404663
:1023F000FEF70AFFDFF844904FF4E4470022394625
:102400004846FEF701FF4FF4C04001250326CDE901
:102410000005CDE9024669464046FEF717FE0097E3
:102420000396CDE9015469464846FEF70FFE05B014
:10243000BDE8F0830010024000100140000C014094
:1024400010B58EB000240794089409940A940B9454
:102450001C2168460C94FDF7CAFE1E481C49016009
:102460000C21C0E9011441F27071C0E903148461C8
:10247000FFF748FB08B1FEF75BFA4FF48050079076
:1024800007A91448FFF77AFB08B1FEF751FA114883
:10249000FFF731FD08B1FEF74BFA0B940BA90D487D
:1024A0000C94FFF707FB08B1FEF742FA6020CDE974
:1024B000000402940822694606480494FFF7B3FC1E
:1024C00008B1FEF735FA0348FFF786FC0EB010BDE1
:1024D000000800402C0100200C4810B50A4901609A
:1024E0004FF4E1314160002181600C22C160C0E9FC
:1024F00004128161C161FFF76BFD002803D0BDE8C4
:102500001040FEF715BA10BD003801408C010020C4
:102510000C4810B50A4901604FF4E13141600021D7
:1025200081600C22C160C0E904128161C161FFF7C2
:102530004FFD002803D0BDE81040FEF7F9B910BDEB
:1025400000480040CC010020FEE770470907090E53
:10255000002806DA00F00F0000F1E02080F8141DDA
:10256000704700F1E02080F8001470472DE9F04139
:10257000FDF79DFE144C06460121E06025692846C2
:10258000FDF708FF3146FDF792FE6169FDF73AFE5F
:10259000A168FDF78FFE074631466068FDF78AFEA9
:1025A000804629463046FDF77FFE2168FDF782FE12
:1025B0004146FDF727FE3946FDF724FE2661C4E9B2
:1025C0000550BDE8F0810000B00000200648054934
:1025D0000160064941600021816041610161C16083
:1025E00070470000CDCC4C3FB00000209A99993F35
:1025F0002DE9F0411048124C124D02780F48124F4D
:1026000046154FF48041012A14D1104A104B12682C
:102610009A420FDD5FF00102FEF7F6FD2068A84246
:1026200001DD012200E0002231463846BDE8F041DC
:10263000FEF7EABD0022EFE7000000200010014095
:102640001000002000009A42000C01400800002009
:102650000000504100F02EFE00F0A0FD00F04AFE08
:10266000012000F05BFBFBE710B5502080F31188E0
:10267000BFF34F8FBFF36F8F00F0CAFF18B104494B
:102680004FF080500860002080F3118810BD0000DA
:1026900004ED00E030B593B028216846FDF7A7FDB2
:1026A00014210AA8FDF7A3FD002401200F94109423
:1026B0001194010412948DE8130004904FF4E0107B
:1026C000CDE90810022507956846FFF76FF80F203F
:1026D000CDE90A056802CDE90C4002210AA80E9452
:1026E000FEF738FFA80311900F950FA8FEF7BCFE68
:1026F00013B030BD0D48016841F00101016041682F
:102700000B4A1140416001680A4A114001600168AA
:1027100021F480210160416821F4FE0141604FF401
:102720001F0181600449C003086070470010024027
:102730000000FFF8FFFFF6FE08ED00E00148FFF79C
:1027400097BA000050020020F0B50268164B174CF3
:10275000174D4FF08047984205D0B84203D0A042B1
:1027600001D0A84203D122F070064A683243984251
:1027700005D0B84203D0A04201D0A84203D122F430
:102780004074CA68224322F080044A6922430260EE
:102790008A68C2620A688262984201D1096901634B
:1027A00001214161F0BD0000002C01400004004007
:1027B0000008004010B50123046A8B409C4304626A
:1027C000036A8A401343036210BD10B5846842EA6D
:1027D000032224F47F440A432243826010BD8268AE
:1027E00022F070020A4342F0070181607047000046
:1027F00030B5026A22F001020262026A436884690B
:1028000024F073050C682C4322F002058A682A43E1
:102810000A4DA8420BD122F00805CA6823F4407380
:102820002A434D6922F004021D438B692B43436008
:10283000846149684163026230BD0000002C0140A0
:1028400030B5026A22F010020262026A43688469AB
:102850000D6824F4E64444EA05248D6822F0200241
:1028600042EA05120B4DA8420ED1CD6822F080023B
:1028700042EA05124D6923F4406343EA85038D69FA
:1028800022F0400243EA8503436084614968816322
:10289000026230BD002C014030B5026A22F4807221
:1028A0000262036A4268C46923F4007324F073056A
:1028B0000C682C438D6843EA05230C4DA8420ED1C9
:1028C000CD6823F4006343EA05234D6922F44052A6
:1028D00042EA05128D6923F4806342EA05124260E0
:1028E000C4614968C163036230BD0000002C01402F
:1028F00030B5026A22F480520262046A4268C369F7
:102900000D6823F4E64343EA05238D6824F400545C
:1029100044EA0534064DA84204D14D6922F48042B0
:1029200042EA85124260C36149680164046230BDB5
:10293000002C014010B5036A046A24F0010404620B
:10294000846924F0F00444EA021423F00A020A43E2
:102950008461026210BD10B5036A23F010030362A4
:102960008369046A23F4704343EA023224F0A0032B
:1029700043EA01118261016210BD70B5446A2068AA
:10298000406994F83910C0F3C0100025212904D102
:1029900018B1E584204600F046F82068406994F8B4
:1029A0003A10C0F38010222904D118B1E5852046E1
:1029B00000F02BF8E06B40F01000E0632046FFF7DA
:1029C00006FB70BD10B50146406A096809688906B2
:1029D00013D40021C1850168CA6822F48072CA60DC
:1029E00001684A6922F001024A6101684A6922F0DD
:1029F00040024A61202180F83A10FFF7EDFB10BD3C
:102A000010B5406AFFF7E9FB10BD0168CA6822F4FF
:102A10009072CA6001684A6922F001024A6120216D
:102A200080F83A1070470168CA6822F0C002CA6094
:102A3000202180F8391070472DE9F04104460068E4
:102A40000169E26821F44051114301612169A068E4
:102A50000843616908432168CA6841F20C639A43DC
:102A60000243CA6020684169A26921F440711143A0
:102A700041614C4920686425322688423CD1FEF7EA
:102A80004FFE00EBC00101EB001061688900B0FB54
:102A9000F1F7FEF745FE00EBC00101EB00106168A5
:102AA000B0468900B0FBF1F0B0FBF5F06FF0180113
:102AB000484307EB800106EB0110B0FBF5F000F096
:102AC000F006FEF72DFE00EBC00101EB001061687F
:102AD0008900B0FBF1F0B0FBF5F006EB0016FEF755
:102AE0001FFE00EBC00101EB001061688900B0FB24
:102AF000F1F7FEF715FE3BE0FEF702FE00EBC0012A
:102B000001EB001061688900B0FBF1F7FEF7F8FDFA
:102B100000EBC00101EB00106168B0468900B0FB1A
:102B2000F1F0B0FBF5F06FF01801484307EB8001BE
:102B300006EB0110B0FBF5F000F0F006FEF7E0FD4B
:102B400000EBC00101EB001061688900B0FBF1F0FF
:102B5000B0FBF5F006EB0016FEF7D2FD00EBC0016E
:102B600001EB001061688900B0FBF1F7FEF7C8FDCA
:102B700000EBC00101EB001061688900B0FBF1F0CF
:102B8000B0FBF5F06FF01801484307EB800108EB4C
:102B90000110B0FBF5F0216800F00F0030448860B0
:102BA000BDE8F081003801402DE9F0419846174614
:102BB0000E460446069D1DE0681C1BD02DB1FEF795
:102BC00029FBA0EB0800A84214D92068C16821F4B1
:102BD000D071C1602068416921F00101416120206C
:102BE00084F8390084F83A00002084F83800032083
:102BF000BDE8F0812068006836EA000004D00020BB
:102C0000B842D9D00020F3E70120F9E7704700006F
:102C100038B51D4800680168C943C90633D4C16886
:102C2000C90630D5016800254168009101684068F7
:102C30001548FFF7A0F91548006840681E2214499E
:102C40001148FFF77DFA124C2078AA281BD1E079B1
:102C5000552818D1E3780F4A0F484FF400511BB1A3
:102C600001231370002201E015700122FEF7CCFA57
:102C70000A480B4A01881180A18849BA0180A079CD
:102C800008494002086038BDCC0100200C02002039
:102C90006C010020000000200010014026000020F0
:102CA0002800002020000020FEE702E008C8121FD4
:102CB00008C1002AFAD170477047002001E001C125
:102CC000121F002AFBD170472DE90840FDF74EFD89
:102CD000FDF7D4FDFFF78CFC0121684600F082FB74
:102CE000F4E7FEF7A5FAFFF7D5FCFFF74DFBFFF77A
:102CF00021FBFFF7D1FAFFF7A3FBFFF7EDFBFFF78F
:102D000007FCFFF7EFFAFFF72BFB00F00EF8FEE7EA
:102D100001460020842900D0C81C704710B500B9B6
:102D2000012000F039FB002010BD10B500F0A0FB21
:102D3000002010BD3EB504460D46B0F90800FFF76F
:102D4000E7FF02A9CDE90001208A2B4682B2D4E92F
:102D5000001000F031FC012801D000203EBD029897
:102D60003EBD00002DE9F041184C0F460546E668CF
:102D70002068001D00F05AFA38B9206890F82C102D
:102D800001208840216981432161681C07D137B146
:102D90002168BDE8F0410E48091D00F07FBA2068A7
:102DA0003544B5424560216805D2A06BBDE8F041CD
:102DB000091D00F05BBA606B091D00F057FAA06AAC
:102DC000854200D2A562BDE8F081000050000020DD
:102DD0006C0300202DE9F041054600F06BFA2E4C03
:102DE000A068401CA06020682C4F10B1606940B3FF
:102DF0002DE02560A068012829D1002606EB860079
:102E000007EB800000F024FA761C072EF6D3234847
:102E10008C3000F01DFA2148A03000F019FA1F484C
:102E2000B43000F015FA1D48C83000F011FA1B4804
:102E3000DC3000F00DFA19488C3060631430A06368
:102E400005E02068E96AC06A884200D82560606AA7
:102E5000401C6062E96A01202269884010432061B9
:102E600001EB810007EB8000291D00F017FA00F04C
:102E700041FA606900280CD02068E96AC06A88427B
:102E800007D207494FF080500860BFF34F8FBFF360
:102E90006F8FBDE8F08100005000002090020020FC
:102EA00004ED00E070B5114E114C17E000F014FB7A
:102EB0003068B8B100F010FC00F0FCF9F068C568AB
:102EC000281D00F0B3F9A068401EA0606068401E95
:102ED000606000F00FFA284600F00CF860680028E7
:102EE000E4D170BD00F0F8FBF8E7000058030020C3
:102EF0005000002010B50446006B00F00FFA204689
:102F0000BDE8104000F00ABA10484FF44061420793
:102F100006D0C01D0D4920F00700411AC1F54061DF
:102F20000B4A00230144C2E900030839103A21F09A
:102F3000070111604B600B600B1AC0E9001393602E
:102F40004FF000405360D0607047000080030020C5
:102F50009C000020074C4FF08056074DFFF7A2FF62
:102F600020680128FAD92E60BFF34F8FBFF36F8F0F
:102F7000F4E700009002002004ED00E02DE9F047A6
:102F80009A46DDE9098481466FF00303206B03EB69
:102F900082021044089D20F00706700707D05020D9
:102FA00080F31188BFF34F8FBFF36F8FFEE72318B5
:102FB0000A5C83F834200A5C12B1401C1028F6D356
:102FC000002784F84370072D00D30625E562C4E985
:102FD0001157201D00F047F904F1180000F043F9E3
:102FE0002461C5F107006462A061E76484F8507051
:102FF00052464946304600F0BFF82060B8F1000F55
:1030000001D0C8F80040BDE8F087000030B5114994
:1030100000E011460A688242FBD34B685C18844288
:1030200003D1406818444860084643681C1894421D
:1030300009D1084C103C2468A24209D052681A44B5
:1030400042600A6812680260814200D0086030BDA8
:103050000460F9E79C0000200648416B096829B12B
:10306000416BC968C9684968816270474FF0FF3198
:10307000FAE700005000002008484068401C4FF06C
:10308000500080F3118804D0BFF34F8FBFF36F8FD0
:10309000FEE7BFF34F8FBFF36F8FFEE7A400002062
:1030A0002DE9F0410546002700F016FA314E306850
:1030B00008B9FFF729FFF06805424BD1C5B30835C1
:1030C00068070ED005F00700C0F108000544680746
:1030D00007D0502080F31188BFF34F8FBFF36F8F5D
:1030E000FEE72DB37068854234D82248103001467F
:1030F0000C6801E020460C466168A94202D22168B2
:103100000029F7D131688C4224D00768216801601A
:1031100060680837411B10290FD96019420708D091
:10312000502080F31188BFF34F8FBFF36F8FFEE7FE
:1031300010E041606560FFF769FF61687068401AE0
:103140007060B268904200D2B060F0680143002025
:10315000C4E9000100F0C0FA780707D0502080F3DE
:103160001188BFF34F8FBFF36F8FFEE73846BDE87E
:10317000F08100008C00002010B5031F4FF0807418
:103180001C601B1F21F001011960191F024B0B600D
:10319000143940380A6010BD793000081CB50D2084
:1031A000FEF7B6F814480068C16841F01001C1602C
:1031B0001E2212491048FEF7C3FF08211048FEF7EF
:1031C000B7FEFFF703FA0F480224CDE900400023C1
:1031D00080220DA1104800F0EFF90A480023001DDD
:1031E000CDE90040E2010DA10F4800F0E5F90549E5
:1031F000143908611CBD0000CC0100206C010020C6
:103200002C01002018000020636F6E74726F6C5FD9
:103210007461736B00000000C92C00084144435FD7
:103220007461736B00000000C9050008D0E9013229
:1032300001699A60D0E901235A604A68824201D14B
:1032400082684A60002202610868401E0860704778
:1032500000F108014FF0FF32C0E90112C1600161C5
:1032600000210160704700210161704730B50B6893
:103270005A1C02D000F1080202E0026904E0224672
:10328000546825689D42FAD953684B6099608A60FA
:10329000516008610168491C016030BD42684A60A4
:1032A00093688B6093685960916008610168491C5C
:1032B00001607047502080F31188BFF34F8FBFF338
:1032C0006F8F0A494868401C486001280CD10848A3
:1032D000006810F0FF0F07D0502080F31188BFF373
:1032E0004F8FBFF36F8FFEE770470000A4000020F0
:1032F00004ED00E00849486828B1401E486001D14B
:1033000080F311887047502080F31188BFF34F8FEE
:10331000BFF36F8FFEE70000A400002070B5002807
:1033200027D0144DA0F108046168E868014207D174
:10333000502080F31188BFF34F8FBFF36F8FFEE7EC
:1033400022683AB1502080F31188BFF34F8FBFF34A
:103350006F8FFEE78143616000F0BEF860686968C6
:10336000084468602046FFF751FEBDE8704000F059
:10337000B3B970BD8C00002006484FF47A71006824
:10338000B0FBF1F14FF0E020491E416107210161DE
:10339000704700004C00002010B5020014D00F4808
:1033A000006B38B1502080F31188BFF34F8FBFF30B
:1033B0006F8FFEE700F090F800211046FFF7D2FC77
:1033C00000F08AF9002807D105494FF080500860C5
:1033D000BFF34F8FBFF36F8F10BD00005000002070
:1033E00004ED00E070B50D4604000BD095B11E4A07
:1033F000106BB8B1502080F31188BFF34F8FBFF32B
:103400006F8FFEE7502080F31188BFF34F8FBFF31B
:103410006F8FFEE7502080F31188BFF34F8FBFF30B
:103420006F8FFEE700F058F8D2682368591993426D
:1034300004D98B420AD9914202D807E08B42FAD9CB
:10344000881A21600021FFF78DFC00E0216000F068
:1034500043F9002807D105494FF080500860BFF3B9
:103460004F8FBFF36F8F70BD5000002004ED00E060
:103470001CB515480024CDE900402346802213A145
:10348000144800F099F8012809D0401C1AD15020A6
:1034900080F31188BFF34F8FBFF36F8FFEE750208B
:1034A00080F31188BFF34F8FBFF36F8F06484FF043
:1034B000FF312C38816201214161C460BDE81C40AC
:1034C00000F040B81CBD00007C00002049444C4581
:1034D00000000000552F00080248016B491C0163E1
:1034E00070470000500000201448016B11B1012109
:1034F000C16170470021C1610169B1FA81F1C1F177
:103500001F0101EB81020E4951F822306BB101EB32
:10351000820101F108034A6852684A609A4201D167
:1035200052684A60D16801607047502080F311886A
:10353000BFF34F8FBFF36F8FFEE7000050000020F6
:10354000900200201CB5194908780190FF200870EE
:1035500008788DF800009DF80000154A00F0500032
:1035600010700720906005E09DF800305B008DF83A
:103570000030401E9DF800301B06F5D4000200F418
:10358000E0609060019808700A48016841F4700199
:103590000160016841F070410160FFF7EDFE00201D
:1035A0005060FCF7BFFD00201CBD000000E400E0FF
:1035B000A400002020ED00E02DE9FF5F8346DDE957
:1035C0000E87994616468A469000FFF769FD05006A
:1035D0001AD05420FFF764FD040012D025630021A7
:1035E000CDE90241CDE900874B4632465146584667
:1035F000FFF7C4FC2046FFF7EDFB012004B0BDE857
:10360000F09F2846FFF78AFE4FF0FF30F6E70000F4
:103610002DE9F0412E4C0027206B40B1A069401CE1
:10362000A061E06900B101273846BDE8F081E66895
:10363000761CE66013D1606B006838B1502080F3CF
:103640001188BFF34F8FBFF36F8FFEE7606BA16BE5
:103650006163A063206A401C2062FFF7FDFCA06A42
:10366000DFF87080864209D3606B006880B1606BC0
:10367000C068C568686886420DD2A0622068C06ACA
:1036800000EB800158F821000128CAD90127C8E7BA
:103690004FF0FF30F1E7281DFFF7C8FDA86A18B109
:1036A00005F11800FFF7C2FDE86A01212269814097
:1036B0001143216100EB800108EB8100291DFFF718
:1036C000EDFDE86A2168C96A8842CDD30127CBE7BE
:1036D00050000020900200202DE9F0472C4D0024DE
:1036E0002746286B38B1FFF7E5FD286B401E28639D
:1036F000286B40B146E0502080F31188BFF34F8F14
:10370000BFF36F8FFEE7A968224E0120D1B3A6F167
:10371000B40980463068E8B1F068C46804F1180064
:10372000FFF784FD201DFFF781FDE06A2A6908FA92
:1037300000F11143296100EB800109EB8100211D9B
:10374000FFF7ACFDE06A2968C96A8842E2D3C5F890
:103750001C80DFE70CB1FFF77FFCAC6944B1464643
:10376000FFF756FF00B1EE61641EF9D10020A86199
:10377000E86938B10849012738070860BFF34F8F5F
:10378000BFF36F8FFFF7B6FD3846BDE8F087000046
:10379000500000204403002004ED00E0C83700087A
:1037A0005526000800000000000000008000000016
:1037B00000000000000000000102030406070809E1
:1037C000000000000102030464656661756C7454B6
:1037D00061736B00F437000800000020B0000000A7
:1037E000AA2C0008A4380008B0000020D016000061
:1037F000BA2C0008000000005A0000000000000081
:1038000000000000000000000000000000000000B8
:1038100000000000000000000000000000000000A8
:103820000000000000000000000000000000000098
:103830000000000001000000100000000000000077
:1038400000A24A0400000000000000000000000088
:103850000000000000000000000000000000000068
:103860000000000000000000000000000000000058
:103870000000000000000000000000000000000048
:103880000000000000000000000000000000000038
:10389000000000000000000000000000AAAAAAAA80
:0438A0000000000024
:04000005080000ED02
:00000001FF
